:020000022000DC
:1060000000000420C5CE0200EDCE0200EFCE02005B
:10601000F1CE0200F3CE0200F5CE02000000000037
:10602000000000000000000000000000F7CE0200A9
:10603000F9CE020000000000FBCE0200FDCE0200FF
:10604000D9160300FFCE0200E9160300651B03000A
:1060500001210300FFCE0200D51203004D170300FB
:10606000FFCE0200FFCE0200FFCE0200FFCE0200F4
:10607000FFCE0200FFCE0200FFCE0200FFCE0200E4
:10608000FFCE020069ED0200FFCE0200FFCE02004B
:1060900005EE0200FFCE0200956A0300FFCE02006B
:1060A000FFCE0200FFCE0200FFCE0200FFCE0200B4
:1060B000B9240300FFCE0200000000000000000031
:1060C000FFCE0200FFCE0200FFCE0200FD1A030049
:1060D000FFCE0200FFCE0200FFCE0200819C030033
:1060E000FFCE0200FFCE0200FFCE02000000000043
:1060F00000000000FFCE020000000000FFCE020002
:10610000000000000000000000000000000000008F
:10611000000000000000000000000000000000007F
:10612000000000000000000000000000000000006F
:10613000000000000000000000000000000000005F
:10614000000000000000000000000000000000004F
:10615000000000000000000000000000000000003F
:10616000000000000000000000000000000000002F
:10617000000000000000000000000000000000001F
:10618000000000000000000000000000000000000F
:1061900000000000000000000000000000000000FF
:1061A00000000000000000000000000000000000EF
:1061B00000000000000000000000000000000000DF
:1061C00000000000000000000000000000000000CF
:1061D00000000000000000000000000000000000BF
:1061E00000000000000000000000000000000000AF
:1061F000000000000000000000000000000000009F
:1062000010B5054C237833B9044B13B10448AFF3F0
:1062100000800123237010BD68C100200000000031
:10622000C8FF030008B5034B1BB103490348AFF394
:10623000008008BD000000006CC10020C8FF030002
:10624000154B002B08BF134B9D46A3F5803A002148
:106250008B460F461348144A121A13F072FF0F4B65
:10626000002B00D098470E4B002B00D09847002001
:10627000002104000D000D48002802D00C48AFF3A7
:10628000008013F0E7FE2000290006F09BFD13F0CC
:10629000CDFE00BF00000800000004200000000048
:1062A0000000000068C1002020E60020000000007F
:1062B0000000000007B500238DF80500022201A9A7
:1062C0003C208DF8043004F06DFEB0FA80F04009F7
:1062D00003B05DF804FB07B500238DF805008DF8C9
:1062E0000610032201A93C208DF8043004F05AFE68
:1062F000B0FA80F0400903B05DF804FB07B5042252
:1063000000238DF805008DF807103C200DEB0201ED
:106310008DF804308DF8063004F044FEB0FA80F0B9
:10632000400903B05DF804FBAE20FFF7C3BFAF2008
:10633000FFF7C0BF10B5436D1970436D013343655E
:106340001B1A542B04460DD13F2200F1150113F006
:10635000DFFE04F13F00606515222021BDE81040FA
:1063600013F0EFBE10BD01230A2970B5054680F871
:10637000583013D1446D1522231A93FBF2F402FB1B
:106380001434E4B20026A319DBB2142B00D970BD7B
:1063900020212846FFF7CEFF0136F4E7BDE8704024
:1063A000FFF7C8BF70B5064608460C4613F026FF37
:1063B0002518AC4200D370BD14F8011B3046FFF71E
:1063C000D2FFF6E7B0B5054600AF08460C4613F01D
:1063D00015FF00F1090222F00702ADEB020D234682
:1063E000054A811C684613F0B5FE69462846FFF74A
:1063F000D9FFBD46B0BD00BF18CF030010B5542271
:106400000446202113F09DFE0123646584F8583072
:1064100010BD00002DE9F843064603F0F3FB224BC4
:106420001880FFF784FF03212220FFF767FFC0B326
:106430007D212120FFF762FF98B31C4C4FF40072BE
:106440000021204613F07DFE4023DFF864E0237036
:10645000B4460122204640F2F918114600251CF8E6
:10646000053003EB430300240EEB43030F1913F82D
:106470000490BFB20134062C00F80790F6D1013524
:106480000631152D89B2EAD17E3292B242450CF125
:10649000150CE2D105493C2004F084FD002386F868
:1064A0005830BDE8F88300BF84C10020E8E1002037
:1064B0002CCF03000148FFF7ADBF00BF8CE10020E7
:1064C00038B5044604F052FDAE20FFF7F3FE10B9D4
:1064D0000024204638BD8021D520FFF7FCFE00288F
:1064E000F6D01F21A820FFF7F6FE0028F0D00021EB
:1064F000D320FFF7F0FE0028EAD04020FFF7DAFEB5
:106500000028E5D014218D20FFF7E5FE0028DFD01C
:1065100000212020FFF7DFFE0028D9D0002C5FD01B
:10652000A020FFF7C7FE0028D2D0C020FFF7C2FE90
:106530000028CDD00221DA20FFF7CDFE0028C7D0F9
:106540008F218120FFF7C7FE0028C1D0F121D9207B
:10655000FFF7C1FE0028BBD04021DB20FFF7BBFEC8
:106560000028B5D0A420FFF7A5FE0028B0D0A620B3
:10657000FFF7A0FE0028ABD02E20FFF79BFE0028DF
:10658000A6D0AF20FFF796FE0028A1D000218120E1
:10659000FFF7A1FE044600289AD01548FFF72EFF0A
:1065A00003212220FFF7AAFEB8B17F212120FFF7A7
:1065B000A5FE90B10F4D4FF400720021284613F054
:1065C000C0FD402340F2012229463C202B7004F0FC
:1065D000E9FC074B002283F85820FFF76BFF78E7B0
:1065E000A120FFF767FE00283FF472AFC8209DE7A7
:1065F0008CE10020E8E1002010B500F045FB0C4BD9
:106600000C4C93F858300BB923781BB1FFF752FFAD
:1066100000232370084B188803F000FB4EF660231C
:10662000984203D9BDE81040FFF77EBE10BD00BF01
:106630008CE1002070BC002084C100201F288ABF8C
:10664000054B4FF0A04300F01F00D3F8103523FA9C
:1066500000F000F0010070470003005008B500F0A2
:1066600025FB08BD08B54FF0A0430C22C3F85827FE
:106670001620C3F85027FFF7E1FF02461420FFF76A
:10668000DDFF024B42EA4000187008BD86C10020C1
:1066900010B5184C227816209200D2B2FFF7CEFF28
:1066A00001461420FFF7CAFF41EA40001043C0B280
:1066B0002070114B114C00F00F0022781B5C13442A
:1066C0005BB2012B237003DD00210846FFF7C6FFF4
:1066D00094F90030013303DA01210020FFF7BEFFF7
:1066E00094F90030002B03F00103B8BF5B42237024
:1066F00010BD00BF86C100201CCF030087C1002051
:10670000014B1878704700BF88C10020A0F5C04336
:10671000B3F5005F09D3A0F58043B3F5805F04D3E0
:10672000A0F58073B3F5F85F0BD2C0B2031F9BB224
:10673000232B0BD92B3880B20D288CBF00200120D1
:106740007047B0F5807F28BF0020EFE70120704739
:1067500008B5FFF7DBFF08BD10B5FFF7F9FF00B381
:10676000104C2088D0B103F059FA0F49DFED0F6AC1
:106770000A7842F6E06393FBF0F0C0B2801A07EEAD
:10678000900A07EE102AF8EEE77AB8EEC77AA7EE7D
:10679000A67AFCEEC77A17EE903A0B7003F032FA45
:1067A000208010BD8AC1002088C10020A779473D04
:1067B00010B50F4C208803F031FAB0F57A7F16D966
:1067C0000C4ADFED0D6A1378594207EE101A07EEF6
:1067D000903AB8EEC77AF8EEE77AE7EE267AFCEE62
:1067E000E77A17EE903A137003F00CFA208010BD90
:1067F0008AC1002088C10020A779473D3CDF70474F
:1068000038B5054D642445F001054FF47A40A8479A
:10681000013CFAD138BD00BF70D4030008B5572140
:106820000020FFF7EBFFBFF34F8F0549054BCA6808
:1068300002F4E0621343CB60BFF34F8F00BFFDE76C
:1068400000ED00E00400FA057047000070B54FF05D
:10685000A043174ED3F810359B0E03F00102D1B2BE
:1068600010B93078904222D003F0010381F001008A
:10687000104C33704FF4806506F04CFA307806F017
:106880003DFAC4F80C5533788BB1C4F80855FFF7BE
:10689000B7FFC4F80C55FFF7B3FFC4F80855FFF76E
:1068A000AFFFC4F80C55BDE87040FFF7A9BF70BD3D
:1068B0008CC100200003005008B5084B0322C3F828
:1068C00028274FF0A0430422C3F86827FFF798FF5A
:1068D0000120BDE80840FFF7B9BF00BF000300502A
:1068E0000020FFF7B3BF000010B5232001F034FAF9
:1068F000FFF7E2FF032004F073F90C4B4FF44860FC
:1069000043F00103984704F0F7F8044604F014F943
:10691000382C01D104F0A0FA00F040FF0020FFF76E
:10692000CFFDBDE81040FFF79DBE00BF80D403003F
:1069300008B5FFF761FEFFF7ABFEFFF739FFBDE8D3
:106940000840FFF7CDBF0378032B02D0352002F0BB
:10695000F3B8704710B50378032B044607D1022023
:1069600002F042FF2046BDE8104001F0E5BD3520B1
:10697000BDE8104002F007B810B504F075FB0A4AF4
:1069800003461821094813F0E5FB04F06DFB1223C0
:10699000A0F51660064A90FBF3F318210548BDE800
:1069A000104013F0D7BB00BF97D7030034E400209A
:1069B000A4D703004CE4002037B506F0A5F90B4D31
:1069C0000B4C002808BF2C4606F092F9094B0A4AE6
:1069D000002814BF1846284600902346182107486F
:1069E00013F0B8FB054803B030BD00BFA8F10300A9
:1069F00070D7030010D7030073D7030004E400200E
:106A000010B5FFF77DFE044A034618210348BDE890
:106A1000104013F09FBB00BFAED70300ECE3002093
:106A200007B50A4B0A4A1B780A4813F0010FC3F353
:106A3000450300934FF01801074B18BF1346074A50
:106A400013F088FB034803B05DF804FB64E4002006
:106A50007DD703001CE4002081D7030085D7030005
:106A600030B545F6F043984285B005460C4608D14E
:106A70008B7833B10120FFF7E7FE00F08FFE01F0C5
:106A80004FF9A37833B1FFF777FF2846FFF764FE8D
:106A9000FFF7B6FFA478FFF70DFDA5F5B9435B3B03
:106AA000142B5BD8DFE803F00B171C242A123535B2
:106AB00035353535433C3C3C3C3C3C4F5300002C89
:106AC00049D0002000F06BF9002444E0002C42D0B3
:106AD00004F0C2F9F8E7002C3DD006F057F8F3E7D0
:106AE000CCB3012006F00AF9002006F013F9EBE719
:106AF0008CB3002006F002F90120F6E75CB306F043
:106B0000F7F8044680F00100C0B206F0F7F820461E
:106B1000EBE704B305F11F00C0B206F07FF8D3E73E
:106B2000CCB105F11800C0B204F0ACF9CCE794B1D7
:106B300004F09AFA0A490246684613F03FFB684699
:106B400000F02AF9C0E734B1FFF768FEBCE7002C7B
:106B5000BAD104F0B1F9204605B030BD0124FAE7FE
:106B60006AD7030038B5542204460D4613F0B6FA2E
:106B700038B154222946204613F0BFFA012384F885
:106B8000583038BD10B52D4B0446186802F078FF18
:106B9000052850D8DFE800F00313192B353FFFF725
:106BA0000BFF01462046FFF70DFC25492046FFF765
:106BB00009FC24492046BDE81040FFF703BC2249E8
:106BC0002046FFF7FFFB2149F4E721492046FFF764
:106BD000F9FB20492046FFF7F5FB1F492046FFF748
:106BE000F1FB1E492046BDE81040FFF7DBBB1C4906
:106BF0002046FFF7E7FB1B492046FFF7E3FB1A4956
:106C0000D8E71A492046FFF7DDFB19492046FFF770
:106C1000D9FB1849CEE718492046FFF7D3FBFFF709
:106C2000FFFE01462046FFF7CDFB14492046FFF743
:106C3000C9FB1349D6E71349BCE700BF28C20020AF
:106C40004CE40020ECE30020C6D6030034E400202E
:106C5000C9D60300CCD60300D6D60300E3D6030082
:106C6000F0D60300F6D60300FFD603000DD70300CD
:106C700013D7030021D7030030D7030036D7030012
:106C80004AD703005ED7030000B599B001A8FFF70B
:106C9000B5FB01A8FFF776FF01A90348FFF762FFE4
:106CA00019B05DF804FB00BF8CE1002010B5104B5B
:106CB00018680C4602F0E4FE01280BD002D3052828
:106CC0000DD010BD24B14720BDE8104001F091BFA8
:106CD0004820F9E70CB14B20F6E74E20F4E71CB151
:106CE000BDE8104000F0EEBEBDE8104000F0FCBE74
:106CF00028C200200120704708B5FFF7B1FE08BD8B
:106D000010B50C4B1C5C0C4BC35C6BB1E12001F06B
:106D10003AFE204601F037FE204601F00DFFE1204B
:106D2000BDE8104001F008BF204601F02CFE2046CF
:106D3000F6E700BFB5D7030035D80300F8B5154E08
:106D400004460F4646F00106207810B3012804F1EE
:106D5000010507D16478204601F015FE204601F0B8
:106D6000EBFE04E002280CD1607801F00CFE6C1CF4
:106D70003D46013DEDB2FF2DE6D04FF47A40B047DD
:106D8000F7E7032801D16078E9E7FFF7B9FF254667
:106D9000EDE7F8BDC0D803000021FFF7CFBF10B565
:106DA00001248440E0B202F0B1FE2046BDE810406C
:106DB00002F0E5BC08B501F05DFCBDE8084003F059
:106DC0008FBE704708B5FFF7FCFF08BD08B5FFF799
:106DD000F9FF08BD7047000038B502F051F9074DC2
:106DE000FFF7F8FFFA2445F001054FF47A40A84771
:106DF000013CFAD1BDE83840FFF710BDC0D8030010
:106E000037B50388ADF804300546019802F026FD39
:106E10000199C0B200F05AFA2946044601F0B2FBCB
:106E200029462046FFF768FF18B90024204603B022
:106E300030BD2946204601F0D9FB0028F5D029466F
:106E4000204600F02FFC0028EFD045F6C8439C42B6
:106E500000F0098151D845F6C1439C4200F0D8802A
:106E600029D845F614439C4216D845F602439C4265
:106E700080F04F81B4F5B84F00F0B18045F6014382
:106E80009C4200F0B380B64B01221A705A7028461B
:106E9000FFF730FF0446C9E745F615439C4200F072
:106EA000F18145F6C0439C42EDD1AB78002BBCD0BC
:106EB00000F0DCFFB9E745F6C4439C4200F0C08017
:106EC0000ED845F6C2439C4200F0AE8045F6C3435F
:106ED0009C42D8D1AB78002BA7D000F0F3FDA4E7FB
:106EE00045F6C6439C42AA7800F0B78040F2AF80D6
:106EF000002A9AD000F02CFE97E745F6CF439C423B
:106F000000F0E1802AD845F6CB439C4200F0B980DE
:106F10000FD845F6C9439C4200F0AC8045F6CA4301
:106F20009C42B0D1AB78002B3FF47FAF00F0D6FC91
:106F30007BE745F6CD439C42AA7800F0B78040F24B
:106F4000A880002A3FF471AF00F0B4FC082803D9F0
:106F500000F0B0FC0D2870D9092097E045F6D34326
:106F60009C4200F0D08014D845F6D1439C42AA78C8
:106F700000F0C48040F2B580002A3FF456AF00F024
:106F800099FC182803D900F095FC212855D919201F
:106F90007CE045F6D5439C42714B00F05781C0F030
:106FA000378145F6D64294427FF46DAFAA78002A25
:106FB00040F04E815C78002C40F06081694B58882D
:106FC00002F02CFEC72800F25981202001F029FE92
:106FD000282001F0D8FC282001F0AEFD26E7AB7890
:106FE000002B3FF422AFFFF7F7FE1EE7AB78002B34
:106FF0003FF41BAF5C4A5D49137843F00103137003
:107000005B4B1888000440F0030007F0B7FC0CE766
:10701000AB78002B3FF409AF02F0D2FC10F0220F46
:107020000BD000F06FFE00E7AB78002B3FF4FDAE15
:1070300002F0C6FC10F0220FF3D000F057FEF4E689
:10704000AB78002B3FF4F1AE00F04EFDEDE6002AE8
:107050003FF4EBAE00F060FDE7E6002A3FF4E5AE5A
:1070600000F068FDE1E6AB78002B3FF4DEAE00F007
:107070007DFDDAE6AB78002B3FF4D7AE00F024FCC0
:10708000D3E6AB78002B3FF4D0AE012000F02AFE0F
:10709000CBE6002A3FF4C9AE00F00CFC012803D96E
:1070A00000F008FC0428C8D90220EFE7002A3FF4CA
:1070B000BCAE00F0FFFB052803D900F0FBFB07285E
:1070C000BBD90620E2E7AB78002B3FF4AEAE00F070
:1070D000F1FB0E2803D900F0EDFB1328ADD90F20EA
:1070E000D4E7002A3FF4A1AE00F0E4FB142803D952
:1070F00000F0E0FB1628A0D91520C7E7002A3FF4CE
:1071000094AE1820C2E7AB78002B3FF48EAE23205C
:10711000BCE7AB78002B3FF4BAAE02F0E7FC08B94D
:1071200002F0C8FC02F0F6FCA4F5B844114B033C95
:107130001880112C0AD8DFE804F01F23272B2F33E7
:10714000373B3F43474B4F53575B5F631A7842F0DF
:1071500001021A70187802F0E0FC01F091FF64E679
:1071600092C100208EC1002039C20020C6D8030081
:1071700008C10020A0E400201A7842F00202E8E7EB
:107180001A7842F00402E4E71A7842F00802E0E7D5
:107190001A7842F01002DCE71A7842F02002D8E7B1
:1071A0001A7842F04002D4E71A7842F08002D0E721
:1071B0001A7842F00C02CCE71A786FF30002C8E7A5
:1071C0001A786FF34102C4E71A786FF38202C0E7BE
:1071D0001A786FF3C302BCE71A786FF30412B8E7AA
:1071E0001A786FF34512B4E71A786FF38612B0E796
:1071F0001A786FF3C712ACE71A7802F0FB02E8E7DF
:107200001A78C2F3C01181F0010161F3C712A0E73F
:10721000AC784CB100241C7002F0F4FC274B1880B1
:10722000022001F0F5FC01E61B785BB9234B1888BE
:1072300002F0F4FCC72805D8262001F0A4FB262084
:1072400001F07AFC022001F0ECFCEFE5AA783AB1FB
:1072500000245C7002F0D6FC184B58802020E0E738
:107260005B785BB9154B588802F0D8FCC72805D865
:10727000272001F088FB272001F05EFC202001F090
:10728000D0FCD2E502F09CFBAA780D4B6AB100F06D
:10729000AA00002815BF01220022352029201A70DB
:1072A00002F012FB02F05CFBBFE51B78002B14BF61
:1072B0003520292002F010FBF4E700BF8EC100202A
:1072C0008DC10020002070477047000030225043DD
:1072D000C1F307230C2202FB030353FA81F3034A91
:1072E00032F8130082B002B0704700BF86D40300AA
:1072F000014B33F810007047D8D8030013B5ADF830
:1073000004100199FFF7E2FF00F02EF9B0F5A04F4D
:1073100004462FD2B0F5804F80F0B480E72816D80D
:10732000E02875D2A72808D8A52868D201286FD0F0
:1073300001D304286CD200246AE0BC286BD9C02891
:10734000F9D3C03880B2FFF7D3FF044660E0B0F550
:10735000005F08D2B0F5807F03D2F028EBD340F471
:10736000A044A4B254E0B0F5405F80F08380C0F345
:107370000B00E8E7B0F5AA4F1DD2B0F5A84FC3B295
:1073800080F09F80B0F5A44F07D2B0F5A24F7ED316
:107390004AF2F10040EA03243AE0B0F5A64F80F04B
:1073A00086809808012403F003039C4044EA4014BB
:1073B00044F40C44D5E7B0F5B24F0CD2B0F5B04F61
:1073C00080F08480B0F5AC4FB5D2040204F4F854D8
:1073D00044F400541CE0B0F5B44F7CD3A0F5C04396
:1073E000B3F5005FA7D2C0F3042000F029F9E4B29E
:1073F000000200F4F85044F40054044308E073D051
:1074000044F2820244F28303A6280CBF14461C46B1
:10741000204602B010BDA82869D0A9286AD0AA28A1
:107420006BD0AB286CD0AC286DD0BB286ED0BC28FC
:107430006FD0AD2870D0B02871D0AE2872D0AF28F0
:1074400073D0B12874D0B22875D0B32876D0B428C0
:1074500077D0B52878D0B62879D0B7287AD0B82890
:107460007BD0B9287CD0BA2844F22A6418BF4FF4E4
:107470008844CDE7C3B202054CBF43F4484443F40B
:107480004044C5E7C0F30B0444F42044C0E703F0D4
:10749000030201249440C0F3011044F40C4444EA74
:1074A0000024C3F3810344EA43139CB2B0E7980875
:1074B000012403F003039C4044EA401444F40A44CA
:1074C0004FE74AF2F40444EA0324A1E74AF2F00049
:1074D00040EA042445E700F00F0444F42044C0F3DC
:1074E000031344F0E004EEE744F2810490E744F231
:1074F000E2448DE744F2E9448AE744F2EA4487E74C
:1075000044F2B54484E744F2B64481E744F2B3441C
:107510007EE744F2B4447BE744F2B74478E744F2B0
:10752000CC4475E744F2CD4472E744F283546FE7EC
:1075300044F28A546CE744F2925469E744F294545A
:1075400066E744F2216463E744F2236460E744F2AF
:1075500024645DE744F225645AE744F2266457E761
:1075600044F2276454E7000082281AD00CD831284E
:1075700054D004D829284AD02A2856D07047352814
:107580003ED039280DD07047E32823D004D8E02816
:107590000ED0E22813D07047E62822D0E72829D061
:1075A0007047264B1B7813F0030F18BFE02070477D
:1075B000224B1B7813F0010F18BF392070471F4B67
:1075C0001B7859071BD513F0100F08BFE32018BF15
:1075D00000207047194B1B785A072DD413F0100F59
:1075E000F5E7164B1B78190709D513F0100F08BFE4
:1075F000E720ECE7114B1B781A07EFD5E620704720
:107600000E4B1B7813F0200F18BF292070470B4B2F
:107610001B7813F0200F18BF35207047074B1B78DD
:1076200013F0400F18BF2A207047044B1B7813F04B
:10763000400F18BF31207047E2207047A0E40020BF
:10764000164B1B78590707D500F01802082A12D1EB
:1076500000F0F70040F004001A0707D500F0180208
:10766000182A11D100F0E70040F01400DB0648BFF3
:1076700000F0E700704700F01402042A04BF00F095
:10768000FB0040F00800E7E700F01402142A04BFF2
:1076900000F0EB0040F01800E8E700BFA0E4002095
:1076A0007047000070B58B78054613B90124204659
:1076B00070BD144E3478A4B945F616439842F5D1FE
:1076C000FFF7EEFF0123337002F09CFA0E4B188097
:1076D0000E4B1C700E4B1C805C809C80DC801C81DF
:1076E000E5E7094B188802F099FAB0F5967FDDD2EC
:1076F000064A0749137821F8135001331370002408
:10770000D5E700BFA2C10020A0C100209EC100207B
:1077100094C10020F0B5002936D0C1F1FF015143DA
:1077200009123C27551ACCB2B0FBF7F607FB16013D
:1077300089B2694391FBF7F1C9B2052E27D8DFE87A
:1077400006F003070C191D2060182146C4B209E099
:10775000501A21461446C2B204E021441046C9B270
:10776000224604460C48045D415C825C5A701C70E1
:107770009970F0BD501A11462246E7E7601811468D
:10778000E9E7511AC9B2EDE711461446EAE70021CC
:107790000C460A46E6E700BFE0DB0300084B1A7818
:1077A000012142F0010261F346021A701A886FF358
:1077B000CF121A80FF229A70DA7000221A71704775
:1077C00064E4002010B5314C2378D90707D5304B3D
:1077D00030491888000440F0030007F0CFF8237800
:1077E000DA070BD52C4B2D491A78294B1888000441
:1077F00002F0010240F0030007F0C4F82378DB0731
:107800000BD5254B26491A78214B18880004C2F362
:10781000450240F0030007F0B5F82378D8070AD5F1
:107820001D4B20491A881A4B18880004D20940F0D1
:10783000030007F0A7F82378D90709D5144B1A4994
:107840001888154B00049A7840F0030007F09AF866
:107850002378DA0709D50E4B144918880E4B00041B
:10786000DA7840F0030007F08DF82378DB070BD5BA
:10787000074B0F491888084B00041A7940F00300A1
:10788000BDE8104007F07EB810BD00BF39C200202F
:1078900008C1002006D9030064E400201DD90300BC
:1078A0003AD9030055D903006FD9030089D90300E1
:1078B000A3D90300034B1B7813F0010018BFC3F3D7
:1078C0004500704764E40020034A13790133032B19
:1078D000A8BF03231371704764E40020034A13799F
:1078E000013B83F302031371704700BF64E400207F
:1078F000094B1B7813F0010303D00F21074800F058
:10790000F3BD064A02F12D015370137093700332D8
:107910008A42F9D1F1E700BF64E400206CE4002062
:1079200010B40A4B1B78DB070CD5094B03F12D046F
:10793000587019709A700333A342F9D15DF8044B63
:10794000FFF7D6BF5DF8044B704700BF64E400202A
:107950006CE4002007B5094B1B78DB070AD501ABA7
:10796000FFF7D8FE9DF806209DF804109DF805004D
:10797000FFF7D6FF03B05DF804FB00BF64E400200E
:107980002DE9F04F454D89B0044605932B78DE076D
:107990008846174624D503F07E06022E23D107AB76
:1079A000FFF7B8FE9DF81E209DF81C109DF81D00E5
:1079B000FFF7B6FF2B8885F80280C4F3080262F354
:1079C000CF132B80364BEF701888059B009700046F
:1079D00040F00300002B5ED03249434606F0E6FF3C
:1079E00009B0BDE8F08FC3F3450303F13E0202F096
:1079F0003F02032A01D8EF78DCE703F13A0202F0F4
:107A00003F02082A02D82C88E409D3E703F12702B1
:107A100002F03F02092ACDD8193B13F0010F224A88
:107A20004FEA63030CBF4FF0010A4FF0FF3A32F800
:107A300013B00F23BBFBF3F30AFB03F3049300F52E
:107A4000B47900264FF4B47299FBF2F302FB13935E
:107A50009AB20392154A1278D2070BD5104A1449EC
:107A600010880004CDE900AB9BB2324640F0030021
:107A700006F0A8FF0F4A039806EB4603134441465D
:107A80003A46FFF747FE0136049B0F2E9944D9D1A1
:107A9000FFF72EFF8EE7434607499FE764E4002087
:107AA00008C100202DDB0300DCD8030039C2002010
:107AB00006DB03006CE4002052DB03000123FFF728
:107AC0005FBF000007490888C0094FF4B4720A304C
:107AD00090FBF2F302FB130080B2CA788978FFF7BB
:107AE000EDBF00BF64E400200A490888C0090928E6
:107AF00081BF0A384FF4B47290FBF2F302FB13001B
:107B000098BF00F5AF70CA78897888BF80B2FFF758
:107B1000D5BF00BF64E40020054B99781888DA7857
:107B2000EE299ABF1131C9B2FF21C009FFF7C6BFC4
:107B300064E40020054B99781888DA78102986BF0C
:107B40001139C9B20021C009FFF7B8BF64E40020B1
:107B5000054BDA7818889978EE2A9ABF1132D2B29A
:107B6000FF22C009FFF7AABF64E40020054BDA78C2
:107B700018889978102A86BF113AD2B20022C0091B
:107B8000FFF79CBF64E400200023FFF7F9BE00006C
:107B900030B4094C2478E4070BD50E2B09D8074DD7
:107BA00003EB4303EC18E9546070A27030BCFFF79C
:107BB0009FBE30BC704700BF64E400206CE400202E
:107BC00013B51C46084B1B78DB070BD501ABFFF741
:107BD000A1FD23469DF806209DF804109DF80500A0
:107BE000FFF7D6FF02B010BD64E40020074B01226E
:107BF0001A70074B1B78DB0707D5064B0649188818
:107C0000000440F0030006F0B9BE7047C2C1002076
:107C100039C2002008C100208BDB0300074B002283
:107C20001A70074B1B78DB0707D5064B06491888E7
:107C3000000440F0030006F0A1BE7047C2C100205E
:107C400039C2002008C1002079DB030010B5214CA7
:107C50002378DA073DD5F0B9012262F34603237099
:107C60001D4B22781888000440F00300C2F345023F
:107C7000C1B11A4906F086FE237803F07E02022A7B
:107C800012D1FFF7CBFF2088E278A178C009BDE8C8
:107C90001040FFF779BF242801D92422DDE760F3E3
:107CA0004603DCE70E49E5E7C3F3450303F13E0174
:107CB00001F03F01162903D9462A01D0482A02D1F2
:107CC000FFF794FFDFE7273303F03F03092BDAD8F0
:107CD000D7E710BD64E4002008C10020CCDA03001F
:107CE000E8DA03000121FFF7B1BF0000044B187868
:107CF000C0F345000130252828BF0120FFF7F2BF5F
:107D000064E40020054B1878C0F34500013810F0FA
:107D1000FF0008BF2420FFF7E5BF00BF64E4002098
:107D200010B50A4C0A49237843F001032370094B2C
:107D30001888000440F00300012206F023FE20789A
:107D4000BDE81040C0F34500FFF7CCBF64E400205D
:107D5000F7D9030008C100200021FFF777BF00001A
:107D600010B5274C237843F00103D807237007D5BB
:107D7000244B25491888000440F0030006F0FEFD5E
:107D80002378D90707D51F4B20491888000440F0F5
:107D9000030006F0F3FD01F0A9FE70B92378DA07BD
:107DA00007D5184B1A491888000440F0030006F064
:107DB000E5FD01F07FFEFFF7F1FC164B00221A6093
:107DC000227812F0010F1C4607D00E4B124918887A
:107DD000000440F0030006F0D1FDFFF7DFFC0023B4
:107DE0002360FFF7EFFC0D4B207801221A70C307C8
:107DF00005D5C0F34500BDE81040FFF7ADBF10BD8D
:107E000039C2002008C100202EDA030045DA030041
:107E10005BDA030064E4002083DA0300C2C10020BF
:107E200038B50E4B0E491A780E4D6FF300021A70DA
:107E30000D4B18880004002240F0030006F0A2FD5C
:107E4000FFF7ECFE322445F001054FF47A40A847D5
:107E5000013CFAD1BDE83840FFF74ABD64E4002098
:107E6000BFD9030000D9030008C1002010B50C4B96
:107E70000C4C188822780C49C2F30002000482F0EE
:107E8000010240F0030006F07DFD2378DB0703D5F7
:107E9000BDE81040FFF7C4BFBDE81040FFF740BF8A
:107EA00008C1002064E400209CDB03000000000007
:107EB00037B5294C0546208801F0B0FE274B5B5DA5
:107EC000834235D801F09EFE2080254C207814F0A6
:107ED00015FB19A3D3E9002314F0A4FC18A3D3E9DC
:107EE000002314F075FB41EC100B12F0C1FD12F0F1
:107EF0001FFE15A3D3E9002351EC100B14F0B0F9C9
:107F000013A3D3E9002314F063FB14F023FE07EE60
:107F1000900A144BFCEEE77A1888CDED017A997837
:107F20009DF80420C009FFF715FD23780133237065
:107F300003B030BDAFF300800000000000E06F40F0
:107F4000182D4454FB210940142A835849C7E53FA2
:107F50003105E4EE7D1F5B40AAC10020D8D80300A4
:107F6000BCC1002064E4002038B50E4C05462088D2
:107F700001F054FE0C4B5B5D834212D801F042FECF
:107F80000A4B20800A4CDA7899782088FFF7E2FCC7
:107F900023884FF4B471013393FBF1F201FB1233E8
:107FA000238038BDACC10020E9D8030064E4002080
:107FB000A4C100202DE9F8431E4C0746208801F09B
:107FC0002DFE7B081C4AD35C83422BD801F01AFE9D
:107FD000DFF86C90DFF86C80184D208000242A8830
:107FE00098F80210182000FB04204FF4B47604EB3C
:107FF000440390FBF6F206FB12004B4498F8032072
:1080000080B20134FFF786FB0F2CE8D1FFF770FC3C
:1080100017F0010F2B8807D0013393FBF6F206FB14
:1080200012332B80BDE8F88313B940F26713F8E7E9
:10803000013BF6E7AEC10020ECD80300A6C100204A
:108040006CE4002064E400202DE9F74F2E4D10F081
:10805000010F044628880CBF4FF0010A4FF0FF3A89
:10806000640801F0DBFD294B1B5D83423FD801F022
:10807000C9FDDFF8A0B0264EDFF89C9028800024D0
:108080005F4600255FFA8AF375703570B57001930D
:108090004FF004089BF800302B44DBB25AB2002AA0
:1080A000BCBF0F335AB294420DD199F80320B9F8EE
:1080B000000099F8021008FB02F23346C2F387026F
:1080C000C009FFF727FB019BB8F101081D44EDB281
:1080D000E0D101340F2C06F10306D2D1FFF708FCE2
:1080E000BAF1010F3B7807D123B90E233B7003B0DF
:1080F000BDE8F08F013BF9E7013393FBF4F4C4EBE7
:1081000004141C1B3C70F2E7B0C10020F2D803003D
:108110006CE40020BDC1002064E400202DE9F041A2
:10812000254C0546208801F079FD244B5B5D834298
:108130003AD801F067FD2080214C002204F12D0186
:1081400023465A701A709A7003338B42F9D11D4F2F
:10815000DFF8788000253E4697F900309D4225DB08
:1081600098F900309D4221DC17490888CA7889783F
:108170002346C009FFF7CEFA01350F2D04F10304A1
:10818000EAD1FFF7B5FB114C11482278017833781A
:108190000A4452B20B445BB2002A3370227001DDF4
:1081A0000D2B01DD49420170BDE8F08100236370B1
:1081B0002370A370E0E700BFB2C10020E6D803003F
:1081C0006CE40020BAC1002064E4002094BC0020CC
:1081D00095BC0020F8B5154C208801F01FFDB0F5C6
:1081E0007A7F21D301F00EFD114B124F1D88124EE4
:1081F0002080013505F001051D80002405EB5400A9
:1082000000F001021001801A04EB4403C00080B2A8
:108210003B44F278B1780134FFF77CFA0F2CEDD1B2
:10822000BDE8F840FFF764BBF8BD00BFB4C1002053
:10823000A8C100206CE4002064E4002038B5194D8A
:10824000288801F0EBFC184B1B88834225D8174C7B
:1082500023781BB9164B93F8FF30237001F0D2FC42
:108260002880144D2B78012B09D004D3022B15D074
:108270000022104601E020780022114602E0002290
:1082800021781046FFF74CFB2B780322013393FB38
:10829000F2F202EB42029B1A2B7038BD00202278CA
:1082A0000146EFE7B6C10020F0D80300BBC10020B3
:1082B000E0DB0300BEC10020F8B5144C208801F0BB
:1082C000ADFCB0F5FA7F1CD301F09CFC104F114DB2
:1082D00020803E46002428883A88A978062CE3B2FC
:1082E0004FEAD0100EDC7AB1EA780134FFF768FC6F
:1082F0000F2CF0D1FFF7FCFA3388013303F00103B0
:108300003380F8BD002AEFD00022EEE7B8C100208C
:10831000C0C1002064E40020244B1B78002B43D014
:10832000234B1B78C3F3450000F13E0202F03F02ED
:10833000032A03D80238C0B2FFF7BABD00F13A02EF
:1083400002F03F02022A03D80638C0B2FFF70CBE83
:1083500000F1370202F03F02052A03D80938C0B203
:10836000FFF728BE00F1310202F03F02052A03D8D0
:108370000F38C0B2FFF768BE00F12B0202F03F02D7
:10838000022A03D81538C0B2FFF7C8BE03F07E0337
:10839000302B01D1FFF71EBF462B01D1FFF74EBF97
:1083A000482B01D1FFF788BF704700BFC2C1002032
:1083B00064E40020704700002DE9F043DFF82481D9
:1083C00098F80030ADF2D44D06460C4604ADABB97A
:1083D000414F386879682B4603C3B8681860FF239B
:1083E0002A706B70AB70EB703C4A3D4814232946F1
:1083F0002B8109F05DFF012388F8003004EB440372
:10840000DB00F833ADF804300023CDE90233304609
:1084100000952946802648F20C0748F2060C9C423B
:1084200023DC302101FB045101F5F07348F2060012
:1084300001F1300221F8020B8A42FBD1934211462E
:10844000F6D14FF400421A805A809A80DA801A815D
:108450005A819A81DA8101231A466946204809F037
:10846000EBFF0DF2D44DBDE8F08390F800800022C0
:1084700046FA02FE1EEA080F14BFBE46E64621F881
:1084800012E00132082AF3D190F8019001F1100EA8
:10849000002246FA02F818EA090F02F1010214BF9D
:1084A000B846E046082A2EF8028BF2D190F80290E6
:1084B00001F1200E002246FA02F818EA090F02F133
:1084C000010214BFB846E046082A2EF8028BF2D10A
:1084D000013303303031A2E7D4DB0300B58302005F
:1084E00098BC0020C3C100204FF08043D3F838244B
:1084F00012F0010F01D0920705D5D3F8383403F0FC
:108500000303032B02D10322FFF756BF704710B5B8
:10851000012304468375407B01F058FAA07B01F0EB
:1085200071FA01F01DFA6368E16904F10C0013B1FE
:10853000BDE81040184710BD70B5437A0646DBB958
:108540008488A4F5AE4465010C4C621905F10C0059
:10855000D1699268204402B190472C44607B01F0BD
:108560003DFAA07B01F056FA01F0FAF9044A002323
:1085700033703372B372138070BD00BF74BC0020BF
:10858000C4C100202DE9F8438B78074673B1144E1F
:1085900096F90020013209D0124CDFF84C900025EA
:1085A0004FF0010896F90030AB4201DABDE8F883DC
:1085B000237B8BB1238ABB4203D1B9F80030BB4285
:1085C0000AD0A37D84F8148013B92046FFF79FFFDB
:1085D00004F10C00FFF7B0FF01352034E2E700BFE3
:1085E000A0BC002074BC0020C4C10020F8B5A0F5D8
:1085F000AE44FF2C074629D81B4B1C4E93F90000B4
:10860000A4B222B29042B8BF1C70640135198B78B5
:108610006B758A782B7BDAB101332B732F8201F0D3
:10862000F1FA688201F026FA687301F0C9F9A873BB
:1086300001F0E2F9AB7BE9691843A873335904F1FF
:108640000C00304403B19847094B1F800120F8BD4E
:10865000002BFBD0AB7D002BF8D004F10C00304494
:10866000FFF76AFFF2E700BFA0BC002074BC002047
:10867000C4C100202DE9F843154B93F900200132C5
:10868000994620D1BDE8F883640108EB04052E8BE0
:108690002B7B002E08BFC82673B1688A01F0BEFA92
:1086A000B04209D9AB7D13B92846FFF730FF04F17A
:1086B0000C004044FFF740FF013799F90030FCB24D
:1086C0009C42E1DDDEE70027DFF80880F5E700BF28
:1086D000A0BC002074BC0020014B1860704700BF94
:1086E000C8C10020024B186808B1036818477047DA
:1086F000C8C100202DE9F0411A4B1B680646002B2B
:108700002ED0194C5B6898472378580728D5D9078D
:1087100007D5164B16491888000440F0030006F0F0
:108720002DF9124FDFF8508000252378DA0707D59E
:108730003888725D0004414640F0030006F022F9DB
:108740000135082DF1D12378DB0709D5074B0949FD
:108750001888000440F00300BDE8F04106F00EB9AF
:10876000BDE8F081C8C1002039C2002008C1002046
:10877000E0DC0300FAEC0300F2DC0300024B1B68B0
:108780000BB19B6818477047C8C10020054B19887A
:10879000814205D01880044B1B680BB1DB68184779
:1087A000704700BFCEC10020C8C10020054B19880A
:1087B000814205D01880044B1B680BB11B69184718
:1087C000704700BFCCC10020C8C100200120704705
:1087D00008B501F007FA02F0C9F901F065FABDE841
:1087E0000840FFF7BDBA000038B5154C23780546A0
:1087F000580720D5D90707D5124B1349188800040C
:1088000040F0030006F0BAF82378DA0708D50D4BDC
:108810000E49188800042A4640F0030006F0B2F81A
:108820002378DB0707D5074B09491888000440F077
:10883000030006F0A3F82846BDE83840FEF7C6BAA4
:1088400039C2002008C10020F8DC03000BDD030062
:10885000FAEC03002DE9FF4702F0ACFAFFF7B6FF90
:10886000002850D0334EDFF8D490002437465FFA0A
:1088700084F8404602F038F936F8145085428246B2
:108880003ED099F80030980701D502F033F985EA17
:108890000A050023ADB245FA03F1C907DAB22CD5B7
:1088A00001259D401AEA050F14BF012300238DF80E
:1088B00000208DF802308DF8018001F0A3F940F01E
:1088C00001006B46ADF8040093E8030000F046F8A1
:1088D00037F814306B4027F81430174C01F002FCC5
:1088E000FFF700FF2378834220D0FFF7FBFE2070C4
:1088F00004B0BDE8F047FFF777BF01330C2BCAD1B6
:108900000134042CB3D14FF6FF73ADF808300023C7
:108910008DF80A3001F076F940F00100ADF80C0056
:1089200004AB13E9030000F019F8D6E704B0BDE882
:10893000F08700BFD2C10020D0C1002039C2002082
:1089400038B5054D044645F001054FF47A40A84777
:10895000013CFAD138BD00BF10DD030084B06B4686
:1089600083E803000022ADF80E2093E8030004AB77
:108970000290ADF80C1013E9030004B000F028BE1B
:10898000008800F08DBF10B50446002800F0D380A9
:10899000822813D1FFF7A6FE810700F1CC80392091
:1089A00000F092FF00F0DCFF6420FFF7C9FF3920E0
:1089B00000F092FFBDE8104000F0D2BF83280ED136
:1089C000FFF790FEC20700F1B680532000F07CFF55
:1089D00000F0C6FF6420FFF7B3FF5320E8E78428C8
:1089E0000ED1FFF77FFE430700F1A580472000F07E
:1089F0006BFF00F0B5FF6420FFF7A2FF4720D7E729
:108A0000031FDBB2A02B08D801F0AAFE002840F01B
:108A10009280204600F058FFCCE700F12003DBB243
:108A2000072B07D800F007040120A040C0B200F0D7
:108A3000CDFFBFE700F15B03DBB2022B0BD8A5280B
:108A400007D0A6280CBF82208320BDE81040FFF786
:108A50009DBE8120F9E700F15803DBB2142B62D8E8
:108A6000A8282ED0A9282ED0AA282ED0AB282ED0C8
:108A7000AC282ED0BB282ED0BC282ED0AD282ED08E
:108A8000B0282ED0AE282ED0AF282ED0B1282FD08F
:108A9000B22830D0B32831D0B42832D0B52833D062
:108AA000B62834D0B72835D0B82836D0B92837D032
:108AB000BA2840F22A2018BF0020BDE81040FFF776
:108AC00075BEE220F9E7E920F7E7EA20F5E7B520EF
:108AD000F3E7B620F1E7B320EFE7B420EDE7B720E6
:108AE000EBE7CC20E9E7CD20E7E740F28310E4E7AD
:108AF0004FF4C570E1E74FF4C970DEE74FF4CA7078
:108B0000DBE740F22120D8E740F22320D5E74FF4FD
:108B10000970D2E740F22520CFE740F22620CCE7CB
:108B200040F22720C9E7EF2805D901F045F9BDE853
:108B3000104001F033BA10BD08B5002858D0822883
:108B40000FD1FFF7CFFD810752D5392000F0BCFED1
:108B500000F006FF392000F0BFFEBDE8084000F03D
:108B6000FFBE83280AD1FFF7BDFDC20740D55320C1
:108B700000F0AAFE00F0F4FE5320ECE784280AD1AE
:108B8000FFF7B0FD430733D5472000F09DFE00F00E
:108B9000E7FE4720DFE7021FD2B2A02ADBD900F1AF
:108BA0002002D2B2072A07D800F00703012098401C
:108BB000C0B200F013FFD0E700F15B02D2B2022A8C
:108BC00004D80020BDE80840FFF7E0BD00F15802DE
:108BD000D2B2142A04D80020BDE80840FFF7E6BD51
:108BE000EF2805D901F052F9BDE8084001F0D6B9E7
:108BF00008BD10B50446FFF7C6FE392C0CBF502047
:108C00003220FFF79DFE2046BDE81040FFF794BFDD
:108C100008B528B100F0DAFEBDE8084000F0A0BEBB
:108C200008BD08B528B100F0D9FEBDE8084000F045
:108C300097BE08BD2DE9F04790F806908578074665
:108C40000C464FEA19190DB100F0ECFE00F07EFE63
:108C5000804670B125B304F12003DBB2072B1FD986
:108C6000022000F05FFE00F071FE80F001005FFA6C
:108C700080F8C4F303360F2E00F2B180DFE816F05F
:108C8000130013005A005A00AA00C400AF00AF003E
:108C9000F800AF0050015001B001AF00AF00B901C2
:108CA0004FF00008E5E7C4F30723C4F3032613F0ED
:108CB000F00F18BF3601E4B295B156B104F12003AC
:108CC000DBB2072B304600D93CB900F07FFE00F044
:108CD00047FE2046FFF757FE11E000F093FEF6E74F
:108CE0002046FFF729FF56B104F12003DBB2072B22
:108CF000304600D9DCB900F071FE00F031FEB8F169
:108D0000000F00F07D8100F0FDFD10F0010040F04B
:108D10007781B87000F0EEFD00F066FD384600F097
:108D200073F900F0E7FDBDE8F04700F067BD00F023
:108D300071FEE2E7C4F3072303F0F003C4F3032654
:108D4000202BE4B218BF360164B1012C2CD0ADB396
:108D5000B9F1000F2CD0BB79D907BAD56FF307133F
:108D6000BB7125E09DB1B9F1000F06D100F082FE84
:108D70003043C0B2FFF74CFFC1E7B9F1010FF5D1A5
:108D800000F078FE3043C0B200F068FEB7E7B9F1FA
:108D9000000F05D100F068FE3046FFF742FFAEE756
:108DA000B9F1010FABD0F5E725B1B9F1050FA6D8A0
:108DB0003046DFE7B9F1040FA1D8EDE7B9F1000FB4
:108DC000EAD0392C02D15020FFF7BAFD2046FFF738
:108DD000B3FE94E7C4F3812333B1012B0CD0082EEA
:108DE00063D00B2E61D08AE725B1C4F30900FFF7E9
:108DF000CDFC84E72846FAE725B1C4F30900FFF764
:108E0000D5FC7CE72846FAE7E0B2CDB1F5280DD0D5
:108E1000F62810D0F42804D17A4A136843F00103ED
:108E2000136000F0C9FF01F0B9F868E7754A1368EC
:108E300043F00203F4E7734A136843F00403EFE7D7
:108E4000F5280BD0F6280ED0F42804D16D4A13680B
:108E500023F00103136001F019F8E4E7694A13688D
:108E600023F00203F6E7674A136823F00403F1E7EF
:108E700014F4407F27D1C5B9E206C4F3421048BFBD
:108E80000F254FEA800048BF854004F00F03C4F36C
:108E9000812448BFED438340022C45EA03000CD0F7
:108EA0000ED8012C06D000F075FCFFF71BFCFDF777
:108EB0008DFF24E700F066FCF7E700F073FCF4E7B1
:108EC00000F05DFCF1E7C4F30122D3B2EDB102F092
:108ED0000103002BE9D0C4F34210830004F00F001B
:108EE00000FA03F214F010001CBF0F209840C4F3E6
:108EF000812418BFC043022C40EA02000AD00CD8DB
:108F0000012C04D000F098FCCFE75B08E1E700F00B
:108F10008BFCCAE700F098FCC7E700F051FCC4E7FF
:108F20005FFA84FAAAF1F003042B3DD8DFE803F0DE
:108F30000310161D260045B1B9F1040F3FF64FAFDF
:108F4000C4F3042000F066FC49E7B9F1050FF5E72A
:108F5000C4F3042035B100F047FC40E7C4F304201B
:108F6000002DF8D000F04AFC39E725B1C4F3042005
:108F700000F035FC33E700F02FFC30E74DB1C4F3CF
:108F80000424204600F030FC0321204600F0C2FCFF
:108F900025E7012000F0C6FCB9F1010F7FF61FAFF5
:108FA000022000F0BFFC1AE74DB1B9F1000F03D069
:108FB0005046FFF7E8FC12E7C4F30420CBE7B9F111
:108FC000000F0AD0BAF1390F0CBF50203220FFF742
:108FD000B7FC5046FFF7B0FD01E7C4F30420C1E73A
:108FE000C4F30322E1B23846FEF76CF900F05CFBF3
:108FF00085E6C4F30322E1B23846FEF765F97EE662
:10900000BDE8F0879CE4002037B583880288ADF87E
:1090100004200446C3B1BDF804204FF6FF739A4202
:1090200012D0FDF7EDFE78B12188A07800F045FC64
:10903000054600F011FC00F0A1FB2946204603B0D4
:10904000BDE83040FFF7F6BD03B030BD08B500F015
:10905000E9FC00F0FDFC00F083FC01F0C1F800F039
:109060009DFF0020FFF792FB0020BDE80840FFF7BE
:109070009DBB08B500F038FCBDE80840FFF7E6BF2F
:1090800008B500F0B3FCBDE80840FFF7F2BFC0F33D
:1090900003330E3303F00F020D2A0CD80123934043
:1090A00013F4105FC1B217D140F20330184004D15D
:1090B00013F010030BD100207047F02902D003D821
:1090C000E729F8D801207047F429F4D1FAE7E72915
:1090D000F8D9F129F6D07047C0F3C020704707B522
:1090E000ADF80400019800F0DBFB03B05DF804EB81
:1090F000FFF7CDBF82B002AB03E9030002B07047B7
:1091000082B002AB03E9030002B0704770B5094BAF
:10911000094E1C78094D3378A34200D170BD05EB90
:10912000C40355F8340059680134FFF7E9FF04F02F
:109130000704F0E723C2002022C20020E2C1002081
:10914000024B18685968FFF7DBBF00BFDAC1002087
:109150002DE9F341274A937913F0F00F0CD193785E
:1091600053B1254BDFF898C01978244D4FF6FF76A0
:109170009CF800308B4202D102B0BDE8F0819388A8
:10918000002B33D0177892F801E08DF804708DF839
:1091900005E0BDF80400B04228D0C8002C1894F8AF
:1091A0000180F04522D115F831E0BE451ED1A778E7
:1091B000E7B9A488A3428ABFF31AE31A1B19C72B85
:1091C000CCBF002301238BB19379012161F30713F5
:1091D00093712B1807489A7961F307129A71FFF778
:1091E00013FF02B0BDE8F041FFF790BF013101F07D
:1091F0000701BDE7DAC1002023C20020E2C1002040
:1092000022C200202DE9F047A54C05468EB0A78864
:109210000068218808900DF1200C2A786B7895F869
:109220000280B5F80490ADF8041094F800E060787E
:10923000002F00F03D818EB24FF6FF718E4200F09C
:109240003781A678002E00F033814F458ABFCF1BAF
:10925000A9EB07074F44C72FA179CCBF00270127EF
:1092600001F0F00A002F00F0C980BAF1000F7BD1A5
:109270008DF809008DF808E0BDF808C04FF6FF70C2
:109280008445464618D08DF820208DF8213020885E
:10929000BDF820C084450FD176B9012363F30711CF
:1092A000A171FFF74DFF7E48FFF7AEFEA379AB71CA
:1092B00030460EB0BDE8F087B9F1000F08D1B8F123
:1092C000000FF5D0A37943F00103A3710026EFE767
:1092D0008DF81C208DF81D30BDF81C004FF6FF7175
:1092E0008842ECD0B8F1000FECD16E486E4990F88E
:1092F00000C009786D4861450FD18DF820208DF8A8
:109300002130089800F0CCFAC0F30332C3B2032A2C
:109310001DD8DFE802F01313212100EBC10494F8FB
:1093200001E09E4506D110F831E0964502D1A478BF
:10933000002CBDD1013101F00701DCE710F4706FA2
:1093400001D0002BB4D02033DBB2072BB0D9284694
:10935000FFF75AFE3E46ABE710F4706FF3D0AA79E0
:1093600012F0F00FEFD1A3E78DF80D008DF80CE0AF
:10937000BDF80C604FF6FF70864216D08DF82020A5
:109380008DF821302088BDF8206086420DD1B8F1DB
:10939000000F0AD1A9712846FFF736FE2B6823601B
:1093A0006B686360FFF7CCFED4E78DF820208DF862
:1093B00021300898FFF793FEE0B1B8F1000F19D003
:1093C000A3791F2B0CD92288ADF8282000228DF814
:1093D0002A20ADF82C908DF82E300AA8FFF714FE45
:1093E0002B6823606B686360FFF7B2FEFFF7A8FE8F
:1093F00001265DE72846FFF707FEF9E7BAF1000FFF
:1094000013D18DF820208DF821308DF82280ADF811
:1094100024909CE80300FFF76DFE2148FFF7F4FD60
:1094200027606760FFF78CFE50E78DF811008DF81C
:1094300010E0BDF810704FF6FF70874214D08DF821
:1094400020208DF821302088BDF8207087420BD174
:10945000B8F1000F08D1A9712846FFF7D5FDC4F86F
:109460000080C4F8048023E78DF820208DF8213097
:109470000898FFF734FE0028BCD0B8F1000FB9D02F
:10948000A3791F2BACD92288ADF8302000228DF8AB
:109490003220ADF834908DF836300CA89EE700BF2E
:1094A000DAC1002022C2002023C20020E2C1002035
:1094B000002F72D08DF814E08DF81500BDF814104F
:1094C0004FF6FF76B14268D0A178002965D14F45AB
:1094D00039D8A9EB0707C72FCCBF00260126002EDD
:1094E0004CD04646002E85D08DF818E08DF8190036
:1094F000BDF818004FF6FF7188422DD08DF820205E
:109500008DF821302188BDF82000884224D1A3792C
:10951000DA071CD413F0F00F19D003F0F002F02A90
:109520001CBFC3F303120132AB711CBF62F30713FC
:10953000AB712846FFF768FD2B6823606B6863609A
:10954000FFF7FEFDB4E6F61B4E44C72EC4E72B68BA
:1095500023606B686360ABE68DF820208DF82130C6
:109560000898FFF7BCFD00287FF43AAFA37928469E
:1095700043F00103A371FFF747FD99E68DF82280C0
:10958000ADF824908DF820208DF821309CE8030060
:10959000FFF7B0FD26606660D2E7B8F1000F3FF438
:1095A00029AF8DF820208DF821300898FFF797FD1E
:1095B000064600283FF41EAF2B6823606B68034803
:1095C0006360FFF7DDF9FFF7C3FDB9E7DAC10020FB
:1095D000F0B587B06C4684E803002046FFF712FE22
:1095E0002D4E2E4D074688B1BDF80430BDF8002041
:1095F000ADF8082043B192B24FF6FF739A4203D000
:1096000094E80300FFF77CFD254C40E094E803005C
:1096100004AB83E80300BDF80420BDF81010ADF8DA
:109620000C10002AF0D089B24FF6FF729142EBD0B5
:1096300034782978621C02F007028A420BD0184F56
:10964000327003CB07EBC40C47F83400CCF804109D
:10965000FFF75CFDD8E7FFF713FD124B37702F7053
:109660001F605F6007B0F0BD04EBC000FFF7CAFDEC
:109670000028F7D02B7804EBC30254F8330051686C
:10968000FFF73EFD2B78013303F007032B7028789A
:1096900033788342E8D1E5E722C2002023C20020CC
:1096A000E2C10020DAC10020F8B5034670B12B4EAC
:1096B000002746F001061878732803F1010406D844
:1096C000042827D201280ED0022826D0F8BD7528FC
:1096D0003DD032D3A0F184036F2BF7D800F07F0088
:1096E000FFF72AFA0EE09C1C5B7803F12002D2B24D
:1096F000072A0ED803F007039840C0B200F098F98B
:1097000000F02EF93D46013DEDB2FF2D22D123465A
:10971000D1E71846FFF737F9F4E758789C1C00F1B9
:109720002003DBB2072BDBD8012300F0070003FA8C
:1097300000F0C0B200F084F9E2E75D789C1C013DC6
:10974000EDB2FF2DDED04FF47A40B047F7E79C1C16
:109750005F78D7E74FF47A40B047D4E720DD0300C5
:109760007047000008B5FFF7FBFF034B1860BDE82A
:109770000840FFF77EBC00BF24C200207047FFF7FF
:10978000F1BF0000024B1B681843FFF7EBBF00BF9F
:1097900024C20020024B1B681840FFF7E3BF00BF44
:1097A00024C20020024B1B685840FFF7DBBF00BFFC
:1097B00024C20020704708B5FFF7FCFF08BD000079
:1097C00008B5FFF7F8FF034B1860BDE80840FFF746
:1097D00050BC00BF28C200200020FFF7F1BF0123CA
:1097E00003FA00F0FFF7ECBF012303FA00F0024B8D
:1097F0001B681843FFF7E4BF28C20020012303FAC7
:1098000000F0034B1B6823EA0000FFF7D9BF00BF3D
:1098100028C20020012303FA00F0024B1B685840C5
:10982000FFF7CEBF28C20020024B1B681843FFF78A
:10983000C7BF00BF28C20020024B1B681840FFF7BB
:10984000BFBF00BF28C20020024B1B685840FFF773
:10985000B7BF00BF28C200207047000073B50E4B91
:10986000ADF804001D680D4B1B681F241D4325FA2D
:1098700004F3DB0766B2E0B206D414F1FF34F6D28B
:109880000026304602B070BD0199FDF737FD80B269
:109890000128F2D0F5E700BF28C2002024C2002032
:1098A00007B5ADF804000198FFF7D8FF0199C0B2E1
:1098B00003B05DF804EBFDF721BD82B0ADF80410F4
:1098C000019802B0FFF7ECBF024B0146186800F0A8
:1098D0005AB900BFA4BC0020024B0146186800F032
:1098E00054B900BFA4BC0020014B186800F04FB968
:1098F000A4BC0020024B93F90000C0F3C7007047DE
:1099000035C20020024B187800F00700704700BFF6
:1099100035C20020024B41EAC0011970FFF764BF55
:1099200035C20020084A92F9003023EA000040B214
:109930001070420706D1DBB2834203D0C0F3C700E8
:10994000FFF75CBF704700BF35C20020034B18789B
:1099500010F0070018BF0120704700BF35C200207B
:1099600038B5124C124922680978117021681148E3
:109970000A780078104D02430A7021680F480A786F
:10998000007802430A7095F900204AB123681978DB
:109990000A431A70206800F0C4F808B100232B7045
:1099A0002068BDE83840FEF7A5BE00BFA4BC00207B
:1099B00037C2002038C2002036C2002034C2002046
:1099C000014B1878704700BF37C20020024A137855
:1099D00018431070704700BF37C20020024A137846
:1099E00023EA00001070704737C20020014B0022AC
:1099F0001A70704737C20020014B1878704700BFBB
:109A000038C20020024A137818431070704700BF14
:109A100038C20020024A137823EA00001070704711
:109A200038C20020014B00221A70704738C2002053
:109A3000024A137818431070704700BF34C20020E8
:109A4000024A137823EA00001070704734C20020E5
:109A5000014B00221A70704734C20020014B18706D
:109A6000704700BF36C20020014B00221A707047B9
:109A700036C20020014B1878704700BF36C2002064
:109A8000030C002B16BF184600231023020A1CBF2C
:109A90001046083302091EBF04331046DBB28208A9
:109AA0001EBF02331046DBB242081CBF0133DBB2DB
:109AB0001846704708B54FF6ED61002000F0F0F849
:109AC0000021022000F0E6F80021032000F0E2F877
:109AD0000021042000F0DEF80021052000F0DAF873
:109AE00000210820BDE8084000F0DCB808B50020DF
:109AF00000F0B2F84FF6ED63C31A5842584108BD62
:109B0000022000F0A3B8032000F0A0B80146032013
:109B100000F0C0B8042000F099B80146042000F01D
:109B2000B9B8421C00F10803002012F8011B09B16A
:109B30000130C0B29A42F8D1704730B54FF0FF33D0
:109B4000851C002215F8014B8C420ED0B3F1FF3F6B
:109B500002D1002C08BF13460132D4B2062C62B2E7
:109B6000F0D15A1C01D01844817030BD10B5831C4F
:109B70000022083013F8014B8C4208BF03F8012C77
:109B80008342F7D110BDFFF7D8BFFFF7EFBF002327
:109B900043708370C370037143718371C3717047E5
:109BA00008B5084A084813680A3313600021074AB9
:109BB00005F0AEFA00224FF4A4710548BDE8084054
:109BC00005F0B8BA5CC2002028DD0300A19B0200AA
:109BD0003CC20020024A136818441060704700BF5E
:109BE0005CC2002008B5054A0548002105F090FA3E
:109BF00018B1BDE8084005F041B808BDA19B0200BE
:109C000028DD0300014B186880B270475CC2002059
:109C1000014B1868704700BF5CC20020054B1A68F2
:109C20001B6892B2904288BF03F1FF33181A80B2CA
:109C3000704700BF5CC20020024B1960024B1860E5
:109C4000704700BF60C2002064C20020014B185C56
:109C5000704700BF68C20020034BC218185C5278DE
:109C600040EA0220704700BF68C20020024B19542E
:109C70001844090A4170704768C20020044B195407
:109C800018440B0A43700B0C090E8370C1707047A7
:109C900068C20020014B1954704700BF68C2002001
:109CA000FFF7E4BFFFF7EABF08B5FFF71FFF08B9EA
:109CB000FFF700FFFFF724FF054B1870FFF72AFF9F
:109CC000044B1880FFF71FFFBDE80840FFF757BDA2
:109CD00039C20020A0E40020194B1B78D90709D510
:109CE000184B187800EB800080087F2823D820B319
:109CF000C0B270479A0705D5124B187800EB800068
:109D00004008F2E75B0704D50E4B187800EB8000A3
:109D1000EBE70D4B1B7863B10C4A0A4912780878BF
:109D2000934200EB80003EBF584390FBF2F080B2BC
:109D3000DBE70520DCE77F2070470120704700BF8C
:109D40008FC20020AABC002090C20020ABBC002023
:109D5000154B1B78D90705D5144B1878800800B32C
:109D6000C0B270479A0703D5104B18784008F6E741
:109D70005B0705D50D4B18787F28F0D97F207047F9
:109D80000B4B1B785BB10B4A084912780878934259
:109D900036BF10FB03F080B290FBF2F0ECE701203D
:109DA000DEE70120704700BF8FC20020ACBC00205E
:109DB00090C20020ADBC0020F02808B505D1FFF707
:109DC0008BFF40422F4B987008BDF12802D1FFF75E
:109DD00083FFF7E7F22805D1FFF77EFF4042294BCA
:109DE0005870F1E7F32802D1FFF776FFF7E7F9287B
:109DF00004D1FFF7ADFF234BD870E5E7FA2803D174
:109E0000FFF7A6FF4042F6E7FB2805D1FFF7A0FFCA
:109E100040421C4B1871D7E7FC2802D1FFF798FF8E
:109E2000F7E7F42804D1174A137843F0010313E04D
:109E3000F52804D1134A137843F002030CE0F62806
:109E400004D1104A137843F0040305E0F72805D144
:109E50000C4A137843F008031370B5E7F82804D1CF
:109E6000084A137843F01003F6E7FD2801D1064AAB
:109E7000DAE7FE2801D1044ADDE7FF28A4D1024A2F
:109E8000E0E700BF8AC200208FC20020F028404BCC
:109E900014D193F90220002A01DA00229A7093F972
:109EA000012052B993F902203AB993F9032022B95B
:109EB00093F904300BB9374A13707047F12804D175
:109EC00093F90220002AE8DCE9E7F22893F901205F
:109ED00004D1002AE3DA00225A70E0E7F32802D125
:109EE000002AF8DCDBE7F92806D193F90320002AE1
:109EF000D5DD0022DA70D2E7FA2804D193F90320E5
:109F0000002ACCDAF5E7FB2806D193F90420002AD1
:109F1000C5DA00221A71C2E7FC2804D193F90420A3
:109F2000002AF6DCBBE7F42804D11A7822F00102FB
:109F30001A70B4E7F52803D11A7822F00202F7E785
:109F4000F62803D11A7822F00402F1E7F72803D1AA
:109F50001A7822F00802EBE7F82803D11A7822F0E9
:109F60001002E5E7FD2805D10B490A7822F001022D
:109F70000A7094E7FE2804D107490A7822F0020209
:109F8000F6E7FF288BD104490A7822F00402EFE7B4
:109F90008AC2002090C200208FC2002038B5424BF8
:109FA0001B781B0777D5414C41492088414D00045F
:109FB00040F0030004F0E2FC20882A783E490004C7
:109FC00040F0030004F0DEFC20883C49000440F02F
:109FD000030004F0D3FC208895F9012038490004DF
:109FE00040F0030004F0CEFC20883649000440F025
:109FF000030004F0C3FC208895F9022030490004D6
:10A0000040F0030004F0BEFC20882E49000440F01C
:10A01000030004F0B3FC208895F9032028490004CC
:10A0200040F0030004F0AEFC20882649000440F014
:10A03000030004F0A3FC208895F9042020490004C3
:10A0400040F0030004F09EFC20881F49000440F00B
:10A05000030004F093FC20881C4B1D491A7800046F
:10A0600040F0030004F08EFC20881A49000440F000
:10A07000030004F083FC2088174B15491A7800046C
:10A0800040F0030004F07EFC20881449000440F0F6
:10A09000030004F073FC0748FEF770FBFFF7B2FD06
:10A0A0000F4B188038BD00BF39C2002008C1002006
:10A0B0002CDD03008AC200200BDD03004FDD03000E
:10A0C000B2D70300A8F1030051DD030090C20020C5
:10A0D00054DD0300C7D603008FC2002012E0030046
:10A0E00088C20020F8B5394B1888FFF797FD38492A
:10A0F0000A78A2B1374B1B7898420FDB364C94F9A3
:10A10000013094F9027094F9036094F9045063B932
:10A11000002F58D1002E56D1002D54D1F8BD2F4B11
:10A120001B7803EB83035B00E6E7FF2A01D00132D3
:10A130000A70002B02DDFFF7CFFD607094F901304B
:10A14000002B03DAFFF7C8FD40426070002F02DDEC
:10A15000FFF7C2FDA07094F90230002B03DAFFF77D
:10A16000BBFD4042A07094F9012072B194F9021035
:10A1700059B1B5235A43121203FB01F308BF012260
:10A180001B1208BF01236270A370002E02DDFFF7CF
:10A19000DFFDE07094F90330002B03DAFFF7D8FD00
:10A1A0004042E070002D02DDFFF7D2FD207194F9EE
:10A1B0000430002B03DAFFF7CBFD40422071BDE8ED
:10A1C000F840FFF7EBBEFF2AB1D1BFE788C20020FD
:10A1D00090C20020A9BC00208AC20020A8BC002098
:10A1E000044A002313601371034A1370034A137067
:10A1F000704700BF8AC2002090C200208FC200209A
:10A20000034B04491888000440F0030004F0B6BB77
:10A2100008C10020C8E003000138052861D8DFE844
:10A2200000F00315243342512E4B1A781144FE29B5
:10A23000C4BFFF221A702C4AD8BF197010882B494E
:10A240001A78000440F0030004F09CBB284B1A78F5
:10A250001144FE29C4BFFF221A70234AD8BF1970C7
:10A26000108824491A780004ECE7234B1A7811442B
:10A27000FE29C4BFFF221A701B4AD8BF197010886C
:10A280001E491A780004DDE71D4B1A781144FE2997
:10A29000C4BFFF221A70144AD8BF19701088194918
:10A2A0001A780004CEE7184B1A781144FE29C4BF6F
:10A2B000FF221A700C4AD8BF1970108813491A78F7
:10A2C0000004BFE7124B1A781144FE29C4BFFF22D5
:10A2D0001A70054AD8BF197010880E491A78000400
:10A2E000B0E77047A8BC002008C10020DFE20300EF
:10A2F000A9BC0020EEE20300AABC002000E303009A
:10A30000ABBC002013E30300ACBC002028E3030037
:10A31000ADBC002041E303000138052861D8DFE827
:10A3200000F00315243342512E4B1A788A4296BF0F
:10A330000022511A1A702C4A88BF197010882B49B4
:10A340001A78000440F0030004F01CBB284B1A7874
:10A350008A4296BF0022511A1A70234A88BF197088
:10A36000108824491A780004ECE7234B1A788A42B3
:10A3700096BF0022511A1A701B4A88BF19701088A4
:10A380001E491A780004DDE71D4B1A788A4296BFF1
:10A390000022511A1A70144A88BF1970108819497E
:10A3A0001A780004CEE7184B1A788A4296BF00222A
:10A3B000511A1A700C4A88BF1970108813491A78FC
:10A3C0000004BFE7124B1A788A4296BF0022511A46
:10A3D0001A70054A88BF197010880E491A7800044F
:10A3E000B0E77047A8BC002008C10020DFE20300EE
:10A3F000A9BC0020EEE20300AABC002000E3030099
:10A40000ABBC002013E30300ACBC002028E3030036
:10A41000ADBC002041E3030010B5094B09490446D7
:10A4200018880004224640F0030004F0ABFA012033
:10A43000A040FFF7A4F9BDE81040FEF721BE00BF21
:10A4400008C100205CE3030010B5094C09492088CD
:10A45000000440F0030004F091FA2088064900044B
:10A460000123052240F00300BDE8104004F094BA37
:10A4700008C1002096E1030091E20300262838B5C8
:10A480004BD81E2880F021810E28914C00F0B1801D
:10A4900010D8072800F08B800B286DD0062872D0CA
:10A4A0008B4B8C491888000440F0030004F066FAD6
:10A4B00000207BE0162800F0D88013D81028EFD1B8
:10A4C000854D20882B78C3F3C00282F0010262F32D
:10A4D000C3032B7000041B0740F0030040F19C8075
:10A4E0007E4914E0192800F099801B28D8D17A4DB4
:10A4F00020882B78C3F3400282F0010262F341030B
:10A50000000499072B7040F0030070D5744904F0E3
:10A5100035FA2B7843F0010367E038282CD009D8AE
:10A52000292803D0352801D02728B9D10020FFF7EA
:10A5300073FF1FE04328F9D004D83A28B0D3393844
:10A54000C0B2F4E74828ABD1FEF79AFD604B6549ED
:10A550001888654D000440F0030004F00FFA4FF432
:10A560007A7445F001054FF47A40A847013CFAD1CE
:10A57000FCF754F9012019E0554B5C491888000498
:10A5800040F0030024E0544A137803F0F1036FF322
:10A5900000031370FFF734FE20885549000440F093
:10A5A000030004F0EBF9534B0120187038BD4A4DFD
:10A5B00020882B78C3F3000282F0010262F30003CB
:10A5C000000413F001042B7040F0030003D04A494B
:10A5D00004F0D4F9CEE7494904F0D0F92B7864F3BC
:10A5E000410364F3820364F3C3032B70C2E744495D
:10A5F000EEE7394D20882B78C3F3800282F0010208
:10A6000062F3820300045A072B7040F0030001D567
:10A610003C497CE73C49DBE73C49D9E720883C4999
:10A62000000440F0030004F0A9F92088394900042F
:10A6300040F0030004F0A2F920883749000440F0FC
:10A64000030004F09BF920883449000440F0030023
:10A6500004F094F920883249000440F0030004F02B
:10A660008DF920882F4900048AE720882E490004AC
:10A6700040F0030004F082F92588FEF733F82D043A
:10A6800045F0030502462949284604F07BF9208855
:10A69000274B28491A78000440F0030004F072F9AF
:10A6A0002088254B25491A78000440F0030004F067
:10A6B00069F92488FFF7ACFA240444F00304024645
:10A6C0001F49204604F05EF954E71D3838E700BF03
:10A6D00008C10020C6E0030039C2002060DF03008B
:10A6E00026DF0300F1DE030090E1030061DD0300DB
:10A6F000EDDE030091C200200DDF030019DF03002F
:10A7000033DF030041DF030050DF03006CDF030091
:10A7100079DF030088DF0300A2DF0300DADF030034
:10A7200015E0030051E003005DE003006BE003006F
:10A73000FABC002085E0030006CA00209CE003006C
:10A74000AFE0030000207047002070471E38C0B201
:10A7500009289ABF014B185C0020704757DD0300A1
:10A76000F8B5AE4E3478012C0546374615D004D3E3
:10A77000022C51D0002030700EE0A94B1B681B78D2
:10A78000222B27D1FFF7DEFF18B92846FFF776FE08
:10A7900000E0012000F00100F8BDA14B1B681B7810
:10A7A000222B05D1FFF7CEFF0028EED02046F1E79F
:10A7B000FFF7CAFF70BB142D1DD00DD80B2D0FD085
:10A7C000102D1BD0974B98491888000440F00300C7
:10A7D00004F0D4F80020DFE7292D0CD0382DF1D17A
:10A7E000FFF70EFD8F4B91491888000440F00300DD
:10A7F00004F0C4F80EE000203870CDE7FFF724FE27
:10A80000884B8B491888000440F0030004F0B6F828
:10A81000022333700120BFE72328824C16D81E285C
:10A8200080F0D0800B2819D006D8072800F0DD80F2
:10A8300020887D490004D9E7132831D01428F7D1A6
:10A840007C4B1A781AB300221A7009E04B2800F0EA
:10A85000CA8012D82928F3D03828E9D1FFF7F4FDAF
:10A86000744B20881A78000440F00300002A00F09E
:10A87000D280714904F086F8CCE7512800F0AD8011
:10A88000522800F0A4804E28D2D10A21A6E02088C8
:10A890006649000440F0030004F070F80120ABE7C3
:10A8A00020886649000440F0030004F067F820881F
:10A8B0006349000440F0030004F060F82088614B15
:10A8C00061491A78000440F0030004F05BF8208826
:10A8D0005E49000440F0030004F050F820885C4911
:10A8E000000440F0030004F049F82088594B564911
:10A8F0001A78000440F0030004F044F8208853491B
:10A90000000440F0030004F039F8208852490004A4
:10A9100040F0030004F032F82088504B4A491A787E
:10A92000000440F0030004F02DF82088474900049B
:10A9300040F0030004F022F820884949000440F068
:10A94000030004F01BF82088464B3F491A780004A6
:10A9500040F0030004F016F820883C49000440F061
:10A96000030004F00BF820883F49000440F0030086
:10A9700004F004F820883D4B33491A78000440F075
:10A98000030003F0FFFF20883049000440F003007B
:10A9900003F0F4FF20883649000440F0030003F080
:10A9A000EDFF2088334B28491A78000440F003005B
:10A9B00003F0E8FF20882549000440F0030003F07D
:10A9C000DDFF4DE7FFF7C2FE1A4B187048E7012183
:10A9D000184B1878FFF720FC42E70121154B187837
:10A9E000FFF79AFC3CE70A21F2E7164B2088224940
:10A9F0001E221A70174B32221A70184B0A221A7034
:10AA0000184B14221A70194B08221A70194B28225D
:10AA10001A700004D1E71949EAE600BF91C200208C
:10AA2000A4BC002008C10020C6E00300EDDE030046
:10AA3000EFE0030092C200207EE10300F3E0030098
:10AA400001E10300A8BC002054DD0300FAEC030080
:10AA500013E10300A9BC002025E10300AABC0020EB
:10AA600034E10300ABBC002045E10300ACBC002096
:10AA70005AE10300ADBC002071E1030084E1030052
:10AA80000279036882B033F81230ADF804309DF8D3
:10AA90000430002063F307009DF8053063F30F20B6
:10AAA00002B07047002973B5C0F3072014BF04211A
:10AAB00000214608094D0C2496FBF4F2114404FBD6
:10AAC0001264012235F91130A24012B2C0074CBF06
:10AAD0001343934325F8113002B070BD94C2002097
:10AAE00008B5FBF725FF08BD014B33F81000704790
:10AAF00094C200207047000030B500220C4C0D4D70
:10AB0000104654F822101F298ABF2B464FF0A0434D
:10AB100001F01F01D3F81035CB40DB4303F00103F4
:10AB20009340013218430C2A80B2EAD130BD00BFF5
:10AB300064E303000003005030B50A4C0A4D0022C4
:10AB4000012054F822301F2B86BF03F01F03294633
:10AB50004FF0A041013200FA03F3042AC1F808358E
:10AB6000EFD130BD94E303000003005038B54FF03F
:10AB7000A042174C174D40F20363C4F82C37C2F8BB
:10AB80007037C4F83437C2F80837FFF7D5FF002212
:10AB90000C2055F822301F2B86BF03F01F032146DF
:10ABA0004FF0A04103F5E07301320C2A41F8230075
:10ABB000EFD10949094A00230B8013804B80538051
:10ABC0008B809380CB80D380FBF78EFE38BD00BF97
:10ABD0000003005064E3030094C200209CC20020E4
:10ABE000074B53F820301F2B86BF03F01F03054986
:10ABF0004FF0A041012202FA03F3C1F80C3570476F
:10AC000094E303000003005010B5FFF7E9FFFFF7DE
:10AC100073FF0446FFF790FF204610BD2DE9F04179
:10AC20005C4D5D4F86B0002405942E46E0B2FFF7E0
:10AC3000EBFF35F8143083421CBF25F814000123C4
:10AC400004F1010418BF3B70042CEFD1524A137871
:10AC500033B3013BDBB2137013BB504FDFF850C16D
:10AC6000BE4637F8130036F8132090424FEA4305EA
:10AC70000FD0002180EA020444FA01F0C00705D594
:10AC800005980598059805980130059001310C2923
:10AC9000F2D10133042B2EF8052025F80C20E0D149
:10ACA0003F49404C0B7894F806800133DBB2FF2B10
:10ACB00008BF00230B70B8F1000F29D02046FFF722
:10ACC000DFFEC6B2384DAB7923B32846FFF7D8FE76
:10ACD000C7B235480978FFF7D3FEFF2FADF8100053
:10ACE0000FD0324B1A781E2393FBF2F39DF81020FD
:10ACF000891AC9B28B4211DBB8F1000F0CD1BE42E8
:10AD000002D8284DA3794BBB012006B0BDE8F081E5
:10AD1000FF26D7E7FF27DCE7BE42F2D9DFF88880BD
:10AD200018E04046FFF7ACFEADF80400C0B2B842F0
:10AD3000E5D100210198FFF7B5FEAA7952B12B7930
:10AD4000E8790133DBB2013AB3FBF0F100FB1133D8
:10AD50002B71AA71AB79002BE3D1D0E72846FFF71E
:10AD60008FFEADF80400C0B2B042CDD101210198F0
:10AD7000FFF798FEA279002AC4D02379E079013345
:10AD8000DBB2013AB3FBF0F100FB11332371A27186
:10AD9000B8E700BF9CC20020AEBC0020A4C20020C7
:10ADA000ACC20020B8BC0020B0BC0020BEEC030048
:10ADB00094C2002010B50448FFF730FF0446FBF7AB
:10ADC000F9FF204610BD00BF94C2002033DF70475A
:10ADD00008B503F071FC18B9BDE8084006F036B8B4
:10ADE00008BD704710B54FF40041002003F0FEFB92
:10ADF00008B103F043FF084C03F034FB0321204665
:10AE000003F0EEFD0123637206F00AF818B1BDE805
:10AE1000104003F033BF10BDC0BC0020F8B50C6873
:10AE20000D46082C06464FF6FF7028BF082409F08F
:10AE3000FFFD00232B604FF6FF77B84202D014F1DC
:10AE4000FF3400D2F8BD2B685A1C2A6026F8130084
:10AE500009F0EEFDF1E7000008B5084B0849188835
:10AE6000000440F0030003F089FD09F039FE18B139
:10AE7000BDE8084003F002BF08BD00BF08C10020C4
:10AE8000B7E3030010B5044601F0C2FB204609F009
:10AE90001DFE08B103F0F2FE054B064918880004B8
:10AEA000224640F00300BDE8104003F06BBD00BF38
:10AEB00008C10020A4E3030030B44FF08043D3F86E
:10AEC0003824D10701D5920730D5D3F8383403F0B0
:10AED0000303032B2AD0164C164D0022012054F8F0
:10AEE00022301F2B86BF03F01F0329464FF0A041DD
:10AEF000013200FA03F3042AC1F80C35EFD10E4CED
:10AF00000C4D0E48002254F822301F2B86BF03F050
:10AF10001F0329464FF0A04103F5E07301320C2ACC
:10AF200041F82300EFD130BCFFF750BF30BC704771
:10AF300094E303000003005064E303000C000300EB
:10AF400010B5074B0749044618882278000440F0E2
:10AF5000030003F017FD2378034A0133136010BD8B
:10AF600008C10020ECE30300B0C2002030B50A4B5A
:10AF70000A4D0FCB85B06C4684E80F0021460023B4
:10AF8000074A284606F090FE0446284606F014FFBD
:10AF9000204605B030BD00BFC8E30300E4E3030072
:10AFA00041AF020073B5154D00232B60009313468B
:10AFB0000A460146124807F04DF8D0B1286810F152
:10AFC000FF3018BF012002B070BD013405F03EFF14
:10AFD000B442F3D02B68002BF7D0B4F57A7FEDD1D3
:10AFE000084B09491888000440F0030003F0C6FC30
:10AFF000E4E7044640F2E936ECE700BFB0C20020C7
:10B00000E4E3030008C10020D8E303007047000018
:10B0100007B5064B064918680190002301A88DF872
:10B02000043006F045FC03B05DF804FBFAE30300CE
:10B030000DB002001FB50A4A52F8040F5168127A87
:10B0400001AB03C301A900201A7006F075FC0121B1
:10B05000044806F0C7FC06F019FD05B05DF804FBD6
:10B06000FAE30300B4C20020084B18884FF4616370
:10B0700010FB03F0FF23B0FBF3F341F268005843E9
:10B0800040F6A613B0FBF3F080B27047B4C20020C4
:10B090007047704707B5044B0093044A402303F000
:10B0A0007BF903B05DF804FBFDB0020065C400202D
:10B0B00010B5028943899A4210D2838802685C1CC9
:10B0C0008480D15481884289B1FBF2F302FB1313CF
:10B0D0008380038901330381012010BD0020FCE738
:10B0E000032908B506D100F0CFFC0348BDE80840AD
:10B0F00000F012BD08BD00BF9CE5030070B50E4E08
:10B1000033780D464BB10D4E8C18A54212D015F870
:10B11000011B3046FFF7CCFFF7E7D4B222460848C0
:10B120000EF0EBFF2246064906480DF05DF808B91F
:10B130000123337070BD00BF64C40020E8BC002050
:10B1400065C400200CE50300023808B50C282FD890
:10B15000DFE800F0072E2E2E2E2E0F1E2A2E2E2E6A
:10B160000B00BDE808400DF0E1BABDE808400DF065
:10B1700091BA0EF09DFAD8B90DF08AFA0D4B0E492E
:10B180001888000440F00300BDE8084003F0F6BB57
:10B19000084B0A491888000440F0030003F0EEFB56
:10B1A000BDE808400DF0B8BABDE808400DF074BA2B
:10B1B00008BD00BF08C1002093E603009EE603001F
:10B1C00070470A4601460020FFF798BF70B500237C
:10B1D00090B00489D9B29CB1C18805684A1C92B26A
:10B1E000C2806E5C45890DF80360B2FBF5F1013356
:10B1F00005FB1122013C402BC2800481E9D1194694
:10B200006846FFF7DEFF10B070BD00002DE9F04189
:10B210000546032906D8DFE801F012071F021F4B7D
:10B2200000221A70BDE8F0811C4B1D4800221A70E4
:10B230000389002BF6D0BDE8F041FFF7C7BF0CF043
:10B24000F1FF184FDFF8648006460024B4420AD1AB
:10B2500028460CF0EAFF68B9012212491248BDE8FD
:10B26000F0410CF0E5BFE3B24046F95CFFF720FF88
:10B270000134EBE7402828BF402002460446094934
:10B280000948084F094E0CF0D3FF0025795D304680
:10B290000135FFF70DFFAC42F8D1DDE764C40020B3
:10B2A000E8BC002024C400200CE50300DCBC002026
:10B2B000014B1889704700BFDCBC002007B502AB0A
:10B2C000012103F8010D1846FFF77BFF03B05DF87D
:10B2D00004FB000030B50A4B1A8972B1D8881C688B
:10B2E0005D89411C89B2D980205CB1FBF5F4013A3B
:10B2F00005FB1411D9801A8130BD1046FCE700BF50
:10B30000DCBC002008B505F035FE08B103F0B6FC42
:10B3100016480DF02DF908B103F0B0FC14480DF0FB
:10B320001FFA08B103F0AAFC11480DF08BFA08B11E
:10B3300003F0A4FC0F480DF013FA08B103F09EFCD3
:10B340000D480DF00DFA08B103F098FC0B480DF014
:10B3500007FA08B103F092FC09480DF001FA08B1B0
:10B3600003F08CFC00F096FC002008BD78E603009A
:10B370009CE50300D0E5030064E503002CE5030031
:10B380000CE5030010B50DF06DF9044608B103F0AB
:10B3900075FC204610BD08B50DF06CFC0028FBD1F3
:10B3A000BDE8084000F094BC10B50146054800F027
:10B3B00071FB04460EF0B6F908B10DF0C1F9E0B228
:10B3C00010BD00BF9CE503000146052201480CF0BA
:10B3D0007DB900BFD0E5030037B502230446ADF8C0
:10B3E000050001A9032209488DF804300CF06EF91C
:10B3F000074B0849054618880004224640F0030020
:10B4000003F0C0FA284603B030BD00BF64E5030076
:10B4100008C1002084E6030007B50322ADF805004B
:10B4200001A904488DF804200CF050F903B05DF830
:10B4300004FB00BF64E5030010B50B46044658B991
:10B440000A68096A0968497882F8241018469A6AD5
:10B4500002219047204610BD0320FCE7F0B5BB4D0C
:10B460000C7A2C700468B4F5F07F00F062815FD82C
:10B4700040F2D716B44200F01E81B4F5EC7F26D21C
:10B48000B4F5E87F00F0ED800BD8002C00F0CA8006
:10B4900040F2CF16B44200F0D88000230360184673
:10B4A000D2E0B4F5EA7F00F0F980B4F5EB7FF4D197
:10B4B00000240AB106791655A54E3668013476780F
:10B4C00006719C42C0F0F88040F2D713BAE0B4F5A0
:10B4D000ED7F00F0098114D8B4F5EC7F00F0F7801F
:10B4E00040F2D916B442D8D100240AB106791655D3
:10B4F00001344E7E06719C42C0F0F7804FF4ED732C
:10B50000A0E0B4F5EF7F00F0FC8000F2068140F28D
:10B51000DB16B442C1D100240AB1067916550134B4
:10B5200009269C420671C0F0ED804FF4EF7389E06C
:10B5300040F2F916B44200F07181B4F5FD7F3CD2BF
:10B5400040F2E316B44200F01881B4F5F27F14D251
:10B5500040F2E116B44200F00381B4F5F17F9CD1D2
:10B5600000240AB10679165501344E6906719C42D1
:10B57000C0F0048140F2E31364E040F2EF16B442FD
:10B5800000F02D81B4F5F87F00F03781B4F5F67F37
:10B5900083D100240AB1067916556E4E37780E69AC
:10B5A00056F827606C4F36683E8001349C42067125
:10B5B000C0F0168140F2EF1344E040F2FF16B442AF
:10B5C00000F05281B4F5007F14D2B4F5FD7F00F095
:10B5D0003181B4F5FF7F7FF460AF00240AB10679B2
:10B5E0001655013403269C420671C0F03E8140F29C
:10B5F000FF1327E040F20126B44200F04D81B4F57C
:10B60000007F40F23D8140F20226B4427FF445AF14
:10B6100000240AB1067916554E4F3E7801360134A2
:10B620003E70C6E04D4E34704C4E37782E78B7429F
:10B6300002D340F2062305E00926A342067105D88D
:10B6400040F2CF1303600120F0BD00240AB1067957
:10B650001655013404269C42067103D34FF4E87357
:10B66000F0E700240AB1067916553C4E0F7A367879
:10B67000DFF8DCC0B74204F1010440F21A8101F1A5
:10B68000090706EB460607EB060E9C42BE5DCCF8AA
:10B6900000E0067103D34FF4EA73D3E700240AB144
:10B6A00006791655013400269C420671FFF401AF5D
:10B6B0004FF4EB73C6E700240AB10679165501343E
:10B6C00003269C42067103D34FF4EC73BAE70024BF
:10B6D0000AB10679165501340E7E06719C42FFF4BC
:10B6E00004AF40F2D913ADE700240AB1067916552C
:10B6F000013400269C420671FFF40EAF40F2DB13CA
:10B70000A0E700240AB106791655013421269C428F
:10B71000067103D340F2DF1394E700240AB10679DF
:10B720001655013411269C42067103D34FF4F07371
:10B7300088E700240AB106791655013401269C4297
:10B7400006710ED340F2E1137CE700BFF3C800207E
:10B75000F8C80020F4C80020E6C80020F2C8002085
:10B7600000240AB106791655013400269C42067160
:10B77000FFF4F7AE4FF4F17364E700240AB10679E1
:10B7800016554F4E4F6937704E4E002701343770B3
:10B790004C4EDFF82CC137789CF800C0BC4513D85C
:10B7A000494F3F6897F801C0484F87F800C000270D
:10B7B0003770444E3778454E3678B74227D3444FDA
:10B7C0003E7801363E702FE70E6956F82760A34297
:10B7D000367906713FF6DEAE4FF4F67332E7002499
:10B7E0000AB1067916553B4E36880134360A9C421A
:10B7F000067103D34FF4F87324E700240AB10679E5
:10B800001655304F3E78013601343E70C0E70726AA
:10B810009C42067103D340F2F91313E700240AB1E6
:10B8200006791655013405269C42067103D34FF460
:10B83000FD7307E700240AB106791655224E244FFE
:10B8400036683F7896F801C0BC4504F1010435D94B
:10B8500096F802C03E449C4216F80C600671FFF454
:10B86000BDAE4FF4FF73EDE600240AB1067916551C
:10B87000013440269C42067103D34FF40073E1E685
:10B8800000240AB106791655013400269C4206713F
:10B8900003D340F20123D5E600240AB106791655F8
:10B8A000013401269C420671FFF4B3AE40F202233C
:10B8B000C8E60023CCF800301B78FFDE0023FBE74E
:10B8C000E5C80020F4C80020F8C80020F0C8002017
:10B8D000F2C80020E6C8002030B5036A1A680024C8
:10B8E000147087B01A685B68054606A80132013BF0
:10B8F00000F8154DCDE90434039203F06FFC2046A7
:10B9000003A90DF017F8044630B9074B01A9CDE99A
:10B91000013501F093FB04469DF8030003F082FC1F
:10B92000204607B030BD00BF39B402000A79012AB1
:10B930000B4607D1C169D1E90012581C013A013107
:10B9400001F08EBB022A01D1016AF4E7062070479C
:10B9500010B404460B4654F8102B214608325DF80B
:10B96000044B0BF055BA2DE9FF47037A06680446ED
:10B97000002B4AD0837A00F10902002B47D0C37A0A
:10B9800008366FF00801304604F1100912F8038000
:10B9900004F07AFC484625680BF055FB074605F194
:10B9A0001C00082538607D60236803F1140A2A46CC
:10B9B00051460EF093FB30B37A68386851460EF06A
:10B9C0009CFB484624680BF03EFB1C34C0E9004554
:10B9D00004A8002300F80D3DCDE90145039303F0D1
:10B9E000FDFB01A940460CF0A5FF044618B9294605
:10B9F000304604F033FC9DF8030003F013FC2046AE
:10BA000004B0BDE8F0870446F9E75B78FFDE1B78F9
:10BA1000FCE7FFF7A8BF0000F0B504689DF81460CC
:10BA20003CB1B4F5067F4FF0000420D004602046FE
:10BA30001CE00D6955F826502F68114D2F60114DEF
:10BA40002C60104D0E4F2D683F68BD4202D940F268
:10BA50001B2309E00F6957F82670BF68A3427D5D7C
:10BA6000057104D84FF4067303600120F0BD0AB1DC
:10BA700005791555034F3D68013501343D60E0E718
:10BA800080C90020ECC80020014B00221A707047CA
:10BA9000F1C800202DE9F041064650F8105B1A4C21
:10BAA0000F460BF0D0FA05F11C030360237808223F
:10BAB0004260A046A3B1154C15482378591C21704B
:10BAC00000EBC30039460EF018FB2378114A03F04F
:10BAD0000F0323701378013313700120BDE8F08148
