:020000022000DC
:106000000000042021D2020049D202004BD202003B
:106010004DD202004FD2020051D202000000000017
:1060200000000000000000000000000053D2020049
:1060300055D202000000000057D2020059D20200DF
:106040003D1B03005BD202004D1B0300C91F030070
:10605000652503005BD2020039170300B11B030062
:106060005BD202005BD202005BD202005BD2020074
:106070005BD202005BD202005BD202005BD2020064
:106080005BD20200C5F002005BD202005BD20200CC
:1060900061F102005BD20200F96E03005BD20200E4
:1060A0005BD202005BD202005BD202005BD2020034
:1060B0001D2903005BD20200000000000000000068
:1060C0005BD202005BD202005BD20200611F0300C0
:1060D0005BD202005BD202005BD20200E5A00300AB
:1060E0005BD202005BD202005BD202000000000023
:1060F000000000005BD20200000000005BD2020042
:10610000000000000000000000000000000000008F
:10611000000000000000000000000000000000007F
:10612000000000000000000000000000000000006F
:10613000000000000000000000000000000000005F
:10614000000000000000000000000000000000004F
:10615000000000000000000000000000000000003F
:10616000000000000000000000000000000000002F
:10617000000000000000000000000000000000001F
:10618000000000000000000000000000000000000F
:1061900000000000000000000000000000000000FF
:1061A00000000000000000000000000000000000EF
:1061B00000000000000000000000000000000000DF
:1061C00000000000000000000000000000000000CF
:1061D00000000000000000000000000000000000BF
:1061E00000000000000000000000000000000000AF
:1061F000000000000000000000000000000000009F
:1062000010B5054C237833B9044B13B10448AFF3F0
:1062100000800123237010BDA8C1002000000000F1
:106220000807040008B5034B1BB103490348AFF34B
:10623000008008BD00000000ACC100200807040079
:10624000154B002B08BF134B9D46A3F5803A002148
:106250008B460F461348144A121A14F0A4F90F4B38
:10626000002B00D098470E4B002B00D09847002001
:10627000002104000D000D48002802D00C48AFF3A7
:10628000008014F019F92000290006F049FF14F0ED
:10629000FFF800BF0000080000000420000000001C
:1062A00000000000A8C10020B8E6002000000000A7
:1062B0000000000007B500238DF80500022201A9A7
:1062C0003C208DF8043005F01BF8B0FA80F040094E
:1062D00003B05DF804FB07B500238DF805008DF8C9
:1062E0000610032201A93C208DF8043005F008F8BF
:1062F000B0FA80F0400903B05DF804FB07B5042252
:1063000000238DF805008DF807103C200DEB0201ED
:106310008DF804308DF8063004F0F2FFB0FA80F00A
:10632000400903B05DF804FBAE20FFF7C3BFAF2008
:10633000FFF7C0BF10B5436D1970436D013343655E
:106340001B1A542B04460DD13F2200F1150114F005
:1063500011F904F13F00606515222021BDE81040CD
:1063600014F021B910BD01230A2970B5054680F843
:10637000583013D1446D1522231A93FBF2F402FB1B
:106380001434E4B20026A319DBB2142B00D970BD7B
:1063900020212846FFF7CEFF0136F4E7BDE8704024
:1063A000FFF7C8BF70B5064608460C4614F058F90A
:1063B0002518AC4200D370BD14F8011B3046FFF71E
:1063C000D2FFF6E7B0B5054600AF08460C4614F01C
:1063D00047F900F1090222F00702ADEB020D234656
:1063E000054A811C684614F0E7F869462846FFF71D
:1063F000D9FFBD46B0BD00BF78D3030010B554220D
:106400000446202114F0CFF80123646584F8583045
:1064100010BD00002DE9F843064603F08BFC224B2B
:106420001880FFF784FF03212220FFF767FFC0B326
:106430007D212120FFF762FF98B31C4C4FF40072BE
:106440000021204614F0AFF84023DFF864E0237009
:10645000B4460122204640F2F918114600251CF8E6
:10646000053003EB430300240EEB43030F1913F82D
:106470000490BFB20134062C00F80790F6D1013524
:106480000631152D89B2EAD17E3292B242450CF125
:10649000150CE2D105493C2004F032FF002386F8B8
:1064A0005830BDE8F88300BFC4C1002060E200207E
:1064B0008CD303000148FFF7ADBF00BF04E200200A
:1064C00038B5044604F000FFAE20FFF7F3FE10B924
:1064D0000024204638BD8021D520FFF7FCFE00288F
:1064E000F6D01F21A820FFF7F6FE0028F0D00021EB
:1064F000D320FFF7F0FE0028EAD04020FFF7DAFEB5
:106500000028E5D014218D20FFF7E5FE0028DFD01C
:1065100000212020FFF7DFFE0028D9D0002C5FD01B
:10652000A020FFF7C7FE0028D2D0C020FFF7C2FE90
:106530000028CDD00221DA20FFF7CDFE0028C7D0F9
:106540008F218120FFF7C7FE0028C1D0F121D9207B
:10655000FFF7C1FE0028BBD04021DB20FFF7BBFEC8
:106560000028B5D0A420FFF7A5FE0028B0D0A620B3
:10657000FFF7A0FE0028ABD02E20FFF79BFE0028DF
:10658000A6D0AF20FFF796FE0028A1D000218120E1
:10659000FFF7A1FE044600289AD01548FFF72EFF0A
:1065A00003212220FFF7AAFEB8B17F212120FFF7A7
:1065B000A5FE90B10F4D4FF400720021284613F054
:1065C000F2FF402340F2012229463C202B7004F0C8
:1065D00097FE074B002283F85820FFF76BFF78E700
:1065E000A120FFF767FE00283FF472AFC8209DE7A7
:1065F00004E2002060E2002010B500F059FB0C4BD3
:106600000C4C93F858300BB923781BB1FFF752FFAD
:1066100000232370084B188803F098FB4EF6602384
:10662000984203D9BDE81040FFF77EBE10BD00BF01
:1066300004E2002070BC0020C4C100201F288ABFD3
:10664000054B4FF0A04300F01F00D3F8103523FA9C
:1066500000F000F0010070470003005008B500F0A2
:1066600039FB08BD08B54FF0A0430C22C3F85827EA
:106670001620C3F85027FFF7E1FF02461420FFF76A
:10668000DDFF024B42EA4000187008BDC6C1002081
:1066900010B5184C227816209200D2B2FFF7CEFF28
:1066A00001461420FFF7CAFF41EA40001043C0B280
:1066B0002070114B114C00F00F0022781B5C13442A
:1066C0005BB2012B237003DD00210846FFF7C6FFF4
:1066D00094F90030013303DA01210020FFF7BEFFF7
:1066E00094F90030002B03F00103B8BF5B42237024
:1066F00010BD00BFC6C100207CD30300C7C100206D
:106700003CDF704738B5054D642445F001054FF472
:106710007A40A847013CFAD138BD00BFD0D8030069
:1067200008B557210020FFF7EBFFBFF34F8F054956
:10673000054BCA6802F4E0621343CB60BFF34F8F8E
:1067400000BFFDE700ED00E00400FA0570B54FF072
:10675000A043174ED3F810359B0E03F00102D1B2BF
:1067600010B93078904222D003F0010381F001008B
:10677000104C33704FF4806506F07AFC307806F0E8
:106780006BFCC4F80C5533788BB1C4F80855FFF78F
:10679000B9FFC4F80C55FFF7B5FFC4F80855FFF76B
:1067A000B1FFC4F80C55BDE87040FFF7ABBF70BD3A
:1067B000C8C100200003005010B54FF08043D3F84B
:1067C0003824D10701D5920705D5D3F8383403F022
:1067D0000303032B0ED106F045FC0446A0B906F0D6
:1067E00035FC88B1012006F043FC2046BDE810408E
:1067F00006F032BC06F036FC30B106F027FC18B9C2
:1068000006F036FC0120F1E710BD000008B5084B8A
:106810000322C3F828274FF0A0430422C3F86827B7
:10682000FFF770FF0120BDE80840FFF78FBF00BFF2
:1068300000030050FFF7C0BF10B5232001F0DCFAC1
:10684000FFF7E4FF032004F079FB0B4B4FF44860A3
:1068500043F00103984704F0FDFA044604F01AFBE4
:10686000382C01D104F0A6FC0020FFF729FEBDE87A
:106870001040FFF7F7BE00BFE0D8030008B5FFF7F0
:10688000BBFEFFF705FFBDE80840FFF7D3BF037865
:10689000032B02D0352002F091B9704710B5037870
:1068A000032B044607D1022002F0D2FF2046BDE8A8
:1068B000104001F083BE3520BDE8104002F0A5B8BD
:1068C00010B54FF0A043D3F810355B0115D504F097
:1068D00079FD104A034618210F4813F06DFE04F0AD
:1068E00071FD1223A0F516600C4A90FBF3F31821FA
:1068F0000B48BDE8104013F05FBE0A4A0648182155
:1069000013F05AFE084A06481821BDE8104013F05B
:1069100053BE00BF43DC0300D8E4002050DC03007A
:10692000F0E400205ADC03006DDC030037B506F00C
:1069300099FB0B4D0B4C002808BF2C4606F086FB3C
:10694000094B0A4A002814BF1846284600902346DF
:106950001821074813F030FE054803B030BD00BFD2
:10696000E8F8030006DC030009DC03000CDC03008C
:10697000A8E4002007B50A4B0A4A1B780A4813F01E
:10698000010FC3F3450300934FF01801074B18BFE5
:106990001346074A13F010FE034803B05DF804FBEA
:1069A00008E5002016DC0300C0E400201ADC030028
:1069B0001EDC030013B503F09BF80C4B0C4C10F0DD
:1069C000020F08BF1C4603F093F80A4A0A4B10F066
:1069D000080F08BF13460093084A094823461821A8
:1069E00013F0EAFD064802B010BD00BFE7F803004F
:1069F00030DC0300E8F8030033DC030010DC0300A4
:106A000078E4002037B503F073F80B4D0B4C10F011
:106A1000010F08BF2C4603F06BF810F0040F084B71
:106A2000084A094808BF2B4600931821234613F053
:106A3000C3FD054803B030BDE8F8030002DC0300E5
:106A400004DC030010DC030090E4002010B5044CCB
:106A5000044A1821204613F0AFFD204610BD00BFA8
:106A600060E4002035DC030030B545F6F04290428A
:106A700085B005460C468B781CD045F6F142904215
:106A80001FD0A3780BB1FFF71BFFA478FFF712FD0F
:106A9000A5F5B9435B3B142B6BD8DFE803F01B274C
:106AA0002C343A22454545454545534C4C4C4C4CBD
:106AB0004C5F6300002BE4D000F0C0FE01F080F9D1
:106AC000DFE7002BDDD02C4B1B78DB07F4D501F082
:106AD000F7F9D6E7002C49D0002000F09AF90024FD
:106AE00044E0002C42D004F065FBF8E7002C3DD0D8
:106AF00006F0FAF9F3E7CCB3012006F0ADFA002076
:106B000006F0B6FAEBE78CB3002006F0A5FA0120F8
:106B1000F6E75CB306F09AFA044680F00100C0B2D2
:106B200006F09AFA2046EBE704B305F11F00C0B265
:106B300006F022FAD3E7CCB105F11800C0B204F098
:106B40004FFBCCE794B104F03DFC0C49024668468B
:106B500013F066FD684600F059F9C0E734B1FFF75D
:106B6000DFFDBCE7002CBAD104F054FB204605B091
:106B700030BD0124FAE700BF08E50020FCDB03007C
:106B800038B5542204460D4613F0DAFC38B15422CD
:106B90002946204613F0E3FC012384F8583038BD21
:106BA00010B5324B0446186803F002F805285AD88D
:106BB000DFE800F0031B212F3F49FFF7B7FE014636
:106BC0002046FFF7FFFB2A492046FFF7FBFBFFF7B4
:106BD000F1FE01462046FFF7F5FBFFF713FF0146E4
:106BE0002046BDE81040FFF7DDBB22492046FFF7F5
:106BF000E9FB2149E8E721492046FFF7E3FB20496B
:106C00002046FFF7DFFB1F492046FFF7DBFB1E494D
:106C1000E6E71E492046FFF7D5FB1D492046FFF752
:106C2000D1FBFFF713FF01462046BDE81040FFF7F8
:106C3000C9BB18492046FFF7C5FB17492046FFF797
:106C4000C1FB1649F0E716492046FFF7BBFBFFF7EB
:106C500091FE01462046FFF7B5FB12492046FFF79B
:106C6000B1FB1149BCE71149DEE700BF68C2002053
:106C7000F0E4002026DB0300D8E4002029DB030039
:106C80003DDB030047DB030054DB030061DB030053
:106C900075DB030083DB030097DB0300A5DB030048
:106CA000B4DB0300C8DB0300DCDB0300F0DB030024
:106CB00000B599B001A8FFF7A1FB01A8FFF770FF8D
:106CC00001A90348FFF75CFF19B05DF804FB00BFA2
:106CD00004E2002010B5234B18680C4602F068FF50
:106CE000012811D002D3052819D010BD3CB147208E
:106CF00001F08BFE4720BDE8104001F05FBF482047
:106D000001F083FE4820F6E724B14B2001F07DFE20
:106D10004B20F0E74E2001F078FE4E20EBE702F02A
:106D2000E7FE420708D51CB1BDE8104000F06EBF79
:106D3000BDE8104000F05CBF02F0DAFEC30708D5E2
:106D40001CB1BDE8104000F045BFBDE8104000F0A8
:106D500033BF1CB1BDE8104000F016BFBDE81040C5
:106D600000F000BF68C200200120704708B5FFF79F
:106D70007BFE08BD10B50C4B1C5C0C4BC35C6BB1AF
:106D8000E12001F042FE204601F03FFE204601F0E6
:106D900015FFE120BDE8104001F010BF204601F0D2
:106DA00034FE2046F6E700BF7EDC0300FEDC030075
:106DB000F8B5154E04460F4646F00106207810B38C
:106DC000012804F1010507D16478204601F01DFE79
:106DD000204601F0F3FE04E002280CD1607801F0B7
:106DE00014FE6C1C3D46013DEDB2FF2DE6D04FF484
:106DF0007A40B047F7E7032801D16078E9E7FFF769
:106E0000B9FF2546EDE7F8BD80DD03000021FFF75F
:106E1000CFBF10B501248440E0B202F00FFF20463E
:106E2000BDE8104002F0DFBC08B501F065FCBDE82C
:106E3000084004F003B8704708B5FFF7FCFF08BD31
:106E400008B5FFF7F9FF08BD7047000038B502F03C
:106E50004BF9074DFFF7F8FFFA2445F001054FF411
:106E60007A40A847013CFAD1BDE83840FFF758BC4A
:106E700080DD030037B50388ADF80430C04B1B78C4
:106E80000546F3B983780198BBB102F061FDC4B245
:106E90002146019802F016FD0199204600F066FA9D
:106EA0002946044601F0B0FB29462046FFF75EFF65
:106EB00068B90024204603B030BD02F029FD044625
:106EC000EAE7019802F044FD0199C0B2E6E72946DD
:106ED000204601F0CDFB0028EBD02946204600F0EB
:106EE00031FC0028E5D045F6C8439C4200F00981FA
:106EF00051D845F6C1439C4200F0D88029D845F6C8
:106F000014439C4216D845F602439C4280F05C81B3
:106F1000B4F5B84F00F0B18045F601439C4200F053
:106F2000B380984B01221A705A702846FFF71CFF55
:106F30000446BFE745F615439C4200F0F28145F652
:106F4000C0439C42EDD1AB78002BB2D000F0DEFF05
:106F5000AFE745F6C4439C4200F0C0800ED845F62A
:106F6000C2439C4200F0AE8045F6C3439C42D8D158
:106F7000AB78002B9DD000F0F5FD9AE745F6C643AF
:106F80009C42AA7800F0B78040F2AF80002A90D0EF
:106F900000F02EFE8DE745F6CF439C4200F0E180E5
:106FA0002AD845F6CB439C4200F0B9800FD845F66D
:106FB000C9439C4200F0AC8045F6CA439C42B0D124
:106FC000AB78002B3FF475AF00F0D8FC71E745F6C5
:106FD000CD439C42AA7800F0B78040F2A880002AF6
:106FE0003FF467AF00F0B6FC082803D900F0B2FC0C
:106FF0000D2870D9092097E045F6D3439C4200F054
:10700000DD8014D845F6D1439C42AA7800F0D180A7
:1070100040F2C280002A3FF44CAF00F09BFC1828DD
:1070200003D900F097FC212855D919207CE045F6BA
:10703000D5439C42534B00F05881C0F0388145F64F
:10704000D64294427FF46DAFAA78002A40F04F8177
:107050005C78002C40F061814B4B588802F076FE42
:10706000C72800F25A81202001F00EFE282001F0EE
:10707000CCFC282001F0A2FD1CE7AB78002B3FF4EC
:1070800018AFFFF7E3FE14E7AB78002B3FF411AF26
:107090003E4A3F49137843F0010313703D4B188873
:1070A000000440F0030007F017FE02E7AB78002B66
:1070B0003FF4FFAE02F01CFD10F0220F0BD000F0E9
:1070C00071FEF6E6AB78002B3FF4F3AE02F010FD54
:1070D00010F0220FF3D000F059FEEAE6AB78002B57
:1070E0003FF4E7AE00F050FDE3E6002A3FF4E1AEE6
:1070F00000F062FDDDE6002A3FF4DBAE00F06AFD41
:10710000D7E6AB78002B3FF4D4AE00F07FFDD0E69D
:10711000AB78002B3FF4CDAE00F026FCC9E6AB788F
:10712000002B3FF4C6AE012000F02CFEC1E6002A81
:107130003FF4BFAE00F00EFC012803D900F00AFCBA
:107140000428C8D90220EFE7002A3FF4B2AE00F0CD
:1071500001FC052803D900F0FDFB0728BBD9062058
:10716000E2E7AB78002B3FF4A4AE00F0F3FB0E286F
:1071700003D900F0EFFB1328ADD90F20D4E700BFEF
:1071800016C20020CEC10020CAC1002097C2002034
:1071900086DD030048C10020002A3FF48AAE00F0DB
:1071A000D9FB142803D900F0D5FB162893D9152054
:1071B000BAE7002A3FF47DAE1820B5E7AB78002B84
:1071C0003FF477AE2320AFE7AB78002B3FF4ADAEB2
:1071D00002F024FD08B902F005FD02F033FDA4F52C
:1071E000B8445D4B033C1880112C0AD8DFE804F04A
:1071F00013171B1F23272B2F33373B3F43474B4F7F
:1072000053571A7842F001021A70187802F01DFDE7
:1072100001F06AFF4DE61A7842F00202F4E71A78AC
:1072200042F00402F0E71A7842F00802ECE71A781C
:1072300042F01002E8E71A7842F02002E4E71A78F8
:1072400042F04002E0E71A7842F08002DCE71A7868
:1072500042F00C02D8E71A786FF30002D4E71A78EC
:107260006FF34102D0E71A786FF38202CCE71A7805
:107270006FF3C302C8E71A786FF30412C4E71A78F1
:107280006FF34512C0E71A786FF38612BCE71A78DD
:107290006FF3C712B8E71A7802F0FB02E8E71A7832
:1072A000C2F3C01181F0010161F3C712ACE7AC7801
:1072B0004CB100241C7002F03DFD284B18800220C8
:1072C00001F0D9FCF6E51B785BB9244B188802F075
:1072D0003DFDC72805D8262001F097FB262001F0A8
:1072E0006DFC022001F0D0FCE4E5AA783AB100245C
:1072F0005C7002F01FFD194B58802020E0E75B789E
:107300005BB9164B588802F021FDC72805D8272005
:1073100001F07BFB272001F051FC202001F0B4FCA0
:10732000C7E502F0E5FBAA780D4B6AB100F0AA00B0
:10733000002815BF01220022352029201A7002F0F2
:107340005BFB02F0A5FBB4E51B78002B14BF3520D6
:10735000292002F059FBF4E738E50020CAC10020DB
:10736000C9C1002000207047704700003022504300
:10737000C1F307230C2202FB030353FA81F3034AF0
:1073800032F8130082B002B0704700BFE6D80300A5
:10739000014B33F81000704798DD030013B5ADF8CA
:1073A00004100199FFF7E2FF00F02EF9B0F5A04FAD
:1073B00004462FD2B0F5804F80F0B480E72816D86D
:1073C000E02875D2A72808D8A52868D201286FD050
:1073D00001D304286CD200246AE0BC286BD9C028F1
:1073E000F9D3C03880B2FFF7D3FF044660E0B0F5B0
:1073F000005F08D2B0F5807F03D2F028EBD340F4D1
:10740000A044A4B254E0B0F5405F80F08380C0F3A4
:107410000B00E8E7B0F5AA4F1DD2B0F5A84FC3B2F4
:1074200080F09F80B0F5A44F07D2B0F5A24F7ED375
:107430004AF2F10040EA03243AE0B0F5A64F80F0AA
:1074400086809808012403F003039C4044EA40141A
:1074500044F40C44D5E7B0F5B24F0CD2B0F5B04FC0
:1074600080F08480B0F5AC4FB5D2040204F4F85437
:1074700044F400541CE0B0F5B44F7CD3A0F5C043F5
:10748000B3F5005FA7D2C0F3042000F029F9E4B2FD
:10749000000200F4F85044F40054044308E073D0B0
:1074A00044F2820244F28303A6280CBF14461C4611
:1074B000204602B010BDA82869D0A9286AD0AA2801
:1074C0006BD0AB286CD0AC286DD0BB286ED0BC285C
:1074D0006FD0AD2870D0B02871D0AE2872D0AF2850
:1074E00073D0B12874D0B22875D0B32876D0B42820
:1074F00077D0B52878D0B62879D0B7287AD0B828F0
:107500007BD0B9287CD0BA2844F22A6418BF4FF443
:107510008844CDE7C3B202054CBF43F4484443F46A
:107520004044C5E7C0F30B0444F42044C0E703F033
:10753000030201249440C0F3011044F40C4444EAD3
:107540000024C3F3810344EA43139CB2B0E79808D4
:10755000012403F003039C4044EA401444F40A4429
:107560004FE74AF2F40444EA0324A1E74AF2F000A8
:1075700040EA042445E700F00F0444F42044C0F33B
:10758000031344F0E004EEE744F2810490E744F290
:10759000E2448DE744F2E9448AE744F2EA4487E7AB
:1075A00044F2B54484E744F2B64481E744F2B3447C
:1075B0007EE744F2B4447BE744F2B74478E744F210
:1075C000CC4475E744F2CD4472E744F283546FE74C
:1075D00044F28A546CE744F2925469E744F29454BA
:1075E00066E744F2216463E744F2236460E744F20F
:1075F00024645DE744F225645AE744F2266457E7C1
:1076000044F2276454E7000082281AD00CD83128AD
:1076100054D004D829284AD02A2856D07047352873
:107620003ED039280DD07047E32823D004D8E02875
:107630000ED0E22813D07047E62822D0E72829D0C0
:107640007047264B1B7813F0030F18BFE0207047DC
:10765000224B1B7813F0010F18BF392070471F4BC6
:107660001B7859071BD513F0100F08BFE32018BF74
:1076700000207047194B1B785A072DD413F0100FB8
:10768000F5E7164B1B78190709D513F0100F08BF43
:10769000E720ECE7114B1B781A07EFD5E62070477F
:1076A0000E4B1B7813F0200F18BF292070470B4B8F
:1076B0001B7813F0200F18BF35207047074B1B783D
:1076C00013F0400F18BF2A207047044B1B7813F0AB
:1076D000400F18BF31207047E220704738E5002086
:1076E000164B1B78590707D500F01802082A12D14B
:1076F00000F0F70040F004001A0707D500F0180268
:10770000182A11D100F0E70040F01400DB0648BF52
:1077100000F0E700704700F01402042A04BF00F0F4
:10772000FB0040F00800E7E700F01402142A04BF51
:1077300000F0EB0040F01800E8E700BF38E500205B
:107740007047000070B58B78054613B901242046B8
:1077500070BD144E3478A4B945F616439842F5D15D
:10776000FFF7EEFF0123337002F0E4FA0E4B1880AE
:107770000E4B1C700E4B1C805C809C80DC801C813E
:10778000E5E7094B188802F0E1FAB0F5967FDDD203
:10779000064A0749137821F8135001331370002467
:1077A000D5E700BFDEC10020DCC10020DAC1002027
:1077B000D0C10020F0B5002936D0C1F1FF015143FE
:1077C00009123C27551ACCB2B0FBF7F607FB16019D
:1077D00089B2694391FBF7F1C9B2052E27D8DFE8DA
:1077E00006F003070C191D2060182146C4B209E0F9
:1077F000501A21461446C2B204E021441046C9B2D0
:10780000224604460C48045D415C825C5A701C7040
:107810009970F0BD501A11462246E7E760181146EC
:10782000E9E7511AC9B2EDE711461446EAE700212B
:107830000C460A46E6E700BFA0E00300084B1A78B2
:10784000012142F0010261F346021A701A886FF3B7
:10785000CF121A80FF229A70DA7000221A717047D4
:1078600008E5002010B5314C2378D90707D5304BF7
:1078700030491888000440F0030007F02DFA2378FF
:10788000DA070BD52C4B2D491A78294B18880004A0
:1078900002F0010240F0030007F022FA2378DB0730
:1078A0000BD5254B26491A78214B18880004C2F3C2
:1078B000450240F0030007F013FA2378D8070AD5F1
:1078C0001D4B20491A881A4B18880004D20940F031
:1078D000030007F005FA2378D90709D5144B1A4994
:1078E0001888154B00049A7840F0030007F0F8F967
:1078F0002378DA0709D50E4B144918880E4B00047B
:10790000DA7840F0030007F0EBF92378DB070BD5BA
:10791000074B0F491888084B00041A7940F0030000
:10792000BDE8104007F0DCB910BD00BF97C20020D1
:1079300048C10020C6DD030008E50020DDDD0300AE
:10794000FADD030015DE03002FDE030049DE03002D
:1079500063DE0300034B1B7813F0010018BFC3F371
:107960004500704708E50020034A13790133032BD3
:10797000A8BF03231371704708E50020034A137959
:10798000013B83F302031371704700BF08E5002039
:10799000094B1B7813F0010303D00C21074800F0BA
:1079A000F5BD064A02F1240153701370937003323F
:1079B0008A42F9D1F1E700BF08E5002010E5002078
:1079C00010B40A4B1B78DB070CD5094B03F12404D8
:1079D000587019709A700333A342F9D15DF8044BC3
:1079E000FFF7D6BF5DF8044B704700BF08E50020E5
:1079F00010E5002007B5094B1B78DB070AD501AB62
:107A0000FFF7D8FE9DF806209DF804109DF80500AC
:107A1000FFF7D6FF03B05DF804FB00BF08E50020C8
:107A20002DE9F04F454D89B0044605932B78DE07CC
:107A30008846174624D503F07E06022E23D107ABD5
:107A4000FFF7B8FE9DF81E209DF81C109DF81D0044
:107A5000FFF7B6FF2B8885F80280C4F3080262F3B3
:107A6000CF132B80364BEF701888059B00970004CE
:107A700040F00300002B5ED03249434607F044F942
:107A800009B0BDE8F08FC3F3450303F13E0202F0F5
:107A90003F02032A01D8EF78DCE703F13A0202F053
:107AA0003F02082A02D82C88E409D3E703F1270211
:107AB00002F03F02092ACDD8193B13F0010F224AE8
:107AC0004FEA63030CBF4FF0010A4FF0FF3A32F860
:107AD00013B00C23BBFBF3F30AFB03F3049300F591
:107AE000B47900264FF4B47299FBF2F302FB1393BE
:107AF0009AB20392154A1278D2070BD5104A14494C
:107B000010880004CDE900AB9BB2324640F0030080
:107B100007F006F90F4A039806EB46031344414663
:107B20003A46FFF747FE0136049B0C2E9944D9D103
:107B3000FFF72EFF8EE7434607499FE708E5002041
:107B400048C10020EDDF03009CDD030097C2002048
:107B5000C6DF030010E5002012E003000123FFF759
:107B60005FBF000007490888C0094FF4B4720A30AB
:107B700090FBF2F302FB130080B2CA788978FFF71A
:107B8000EDBF00BF08E500200A490888C0090928A0
:107B900081BF0A384FF4B47290FBF2F302FB13007A
:107BA00098BF00F5AF70CA78897888BF80B2FFF7B8
:107BB000D5BF00BF08E50020054B99781888DA7812
:107BC000EE299ABF1131C9B2FF21C009FFF7C6BF24
:107BD00008E50020054B99781888DA78102986BFC7
:107BE0001139C9B20021C009FFF7B8BF08E500206C
:107BF000054BDA7818889978EE2A9ABF1132D2B2FA
:107C0000FF22C009FFF7AABF08E50020054BDA787C
:107C100018889978102A86BF113AD2B20022C0097A
:107C2000FFF79CBF08E500200023FFF7F9BE000026
:107C300030B4094C2478E4070BD50B2B09D8074D39
:107C400003EB4303EC18E9546070A27030BCFFF7FB
:107C50009FBE30BC704700BF08E5002010E5002043
:107C600013B51C46084B1B78DB070BD501ABFFF7A0
:107C7000A1FD23469DF806209DF804109DF80500FF
:107C8000FFF7D6FF02B010BD08E50020074B012228
:107C90001A70074B1B78DB0707D5064B0649188877
:107CA000000440F0030007F017B87047FEC1002041
:107CB00097C2002048C100204BE00300074B002280
:107CC0001A70074B1B78DB0707D5064B0649188847
:107CD000000440F0030006F0FFBF7047FEC1002023
:107CE00097C2002048C1002039E0030010B5214CA4
:107CF0002378DA073DD5F0B9012262F346032370F9
:107D00001D4B22781888000440F00300C2F345029E
:107D1000C1B11A4906F0E4FF237803F07E02022A7B
:107D200012D1FFF7CBFF2088E278A178C009BDE827
:107D30001040FFF779BF242801D92422DDE760F342
:107D40004603DCE70E49E5E7C3F3450303F13E01D3
:107D500001F03F01162903D9462A01D0482A02D151
:107D6000FFF794FFDFE7273303F03F03092BDAD84F
:107D7000D7E710BD08E5002048C100208CDF0300D4
:107D8000A8DF03000121FFF7B1BF0000044B187802
:107D9000C0F345000130252828BF0120FFF7F2BFBE
:107DA00008E50020054B1878C0F34500013810F0B5
:107DB000FF0008BF2420FFF7E5BF00BF08E5002053
:107DC00010B50A4C0A49237843F001032370094B8C
:107DD0001888000440F00300012206F081FF20789B
:107DE000BDE81040C0F34500FFF7CCBF08E5002018
:107DF000B7DE030048C100200021FFF777BF000075
:107E000010B5274C237843F00103D807237007D51A
:107E1000244B25491888000440F0030006F05CFF5D
:107E20002378D90707D51F4B20491888000440F054
:107E3000030006F051FF01F0F1FE70B92378DA0774
:107E400007D5184B1A491888000440F0030006F0C3
:107E500043FF01F0C7FEFFF7F1FC164B00221A604A
:107E6000227812F0010F1C4607D00E4B12491888D9
:107E7000000440F0030006F02FFFFFF7DFFC0023B3
:107E80002360FFF7EFFC0D4B207801221A70C30727
:107E900005D5C0F34500BDE81040FFF7ADBF10BDEC
:107EA00097C2002048C10020EEDE030005DF03007A
:107EB0001BDF030008E5002043DF0300FEC10020B4
:107EC00038B50E4B0E491A780E4D6FF300021A703A
:107ED0000D4B18880004002240F0030006F000FF5C
:107EE000FFF7ECFE322445F001054FF47A40A84735
:107EF000013CFAD1BDE83840FFF74ABD08E5002053
:107F00007FDE0300C0DD030048C1002010B50C4B2C
:107F10000C4C188822780C49C2F30002000482F04D
:107F2000010240F0030006F0DBFE2378DB0703D5F7
:107F3000BDE81040FFF7C4BFBDE81040FFF740BFE9
:107F400048C1002008E500205CE0030000000000BC
:107F500037B5294C0546208801F0F8FE274B5B5DBC
:107F6000834235D801F0E6FE2080254C207814F0BD
:107F7000F5FC19A3D3E9002314F084FE18A3D3E978
:107F8000002314F055FD41EC100B12F0A1FF12F08C
:107F9000FFFF15A3D3E9002351EC100B14F090FB65
:107FA00013A3D3E9002314F043FD15F003F807EE03
:107FB000900A144BFCEEE77A1888CDED017A997897
:107FC0009DF80420C009FFF715FD237801332370C5
:107FD00003B030BDAFF300800000000000E06F4050
:107FE000182D4454FB210940142A835849C7E53F02
:107FF0003105E4EE7D1F5B40E6C1002098DD030003
:10800000F8C1002008E5002038B50E4C0546208850
:1080100001F09CFE0C4B5B5D834212D801F08AFE9E
:108020000A4B20800A4CDA7899782088FFF7E2FC26
:1080300023884FF4B471013393FBF1F201FB123347
:10804000238038BDE8C10020A9DD030008E5002039
:10805000E0C100202DE9F8431E4C0746208801F0BE
:1080600075FE7B081C4AD35C83422BD801F062FE6C
:10807000DFF86C90DFF86C80184D208000242A888F
:1080800098F802101E2000FB04204FF4B47604EB95
:10809000440390FBF6F206FB12004B4498F80320D1
:1080A00080B20134FFF786FB0C2CE8D1FFF770FC9F
:1080B00017F0010F2B8807D0013393FBF6F206FB74
:1080C00012332B80BDE8F88313B940F26713F8E749
:1080D000013BF6E7EAC10020ACDD0300E2C100206D
:1080E00010E5002008E500202DE9F74F2E4D10F097
:1080F000010F044628880CBF4FF0010A4FF0FF3AE9
:10810000640801F023FE294B1B5D83423FD801F038
:1081100011FEDFF8A0B0264EDFF89C9028805F4665
:10812000002500245FFA8AF374703470B4700193F0
:108130004FF004089BF800302344DBB25AB2002A07
:10814000BCBF0C335AB295420DD199F80320B9F84F
:10815000000099F8021008FB02F23346C2F38702CE
:10816000C009FFF727FB019BB8F101081C44E4B2EA
:10817000E0D101350C2D06F10306D2D1FFF708FC42
:10818000BAF1010F3B7807D123B90B233B7003B041
:10819000BDE8F08F013BF9E7013393FBF5F205FBF6
:1081A00012353D70F3E700BFECC10020B2DD0300E3
:1081B00010E50020F9C1002008E500202DE9F0417C
:1081C000254C0546208801F0C1FD244B5B5D8342B0
:1081D0003AD801F0AFFD2080214C002204F12401A7
:1081E00023465A701A709A7003338B42F9D11D4F8F
:1081F000DFF8788000253E4697F900309D4225DB68
:1082000098F900309D4221DC17490888CA7889789E
:108210002346C009FFF7CEFA01350C2D04F1030403
:10822000EAD1FFF7B5FB114C114822780178337879
:108230000A4452B20B445BB2002A3370227001DD53
:108240000A2B01DD49420170BDE8F0810023637013
:108250002370A370E0E700BFEEC10020A6DD03009D
:1082600010E50020F6C1002008E5002094BC0020A5
:1082700095BC0020F8B5154C208801F067FDB0F5DD
:108280007A7F21D301F056FD114B124F1D88124EFB
:108290002080013505F001051D80002405EB540008
:1082A00000F001021001801A04EB4403C00080B208
:1082B0003B44F278B1780134FFF77CFA0C2CEDD115
:1082C000BDE8F840FFF764BBF8BD00BFF0C1002077
:1082D000E4C1002010E5002008E5002038B5194D64
:1082E000288801F033FD184B1B88834225D8174C92
:1082F00023781BB9164B93F8FF30237001F01AFD59
:108300002880144D2B78012B09D004D3022B15D0D3
:108310000022104601E020780022114602E00022EF
:1083200021781046FFF74CFB2B780322013393FB97
:10833000F2F202EB42029B1A2B7038BD0020227829
:108340000146EFE7F2C10020B0DD0300F7C10020D5
:10835000A0E00300FAC10020F8B5144C208801F019
:10836000F5FCB0F5FA7F1CD301F0E4FC104F114D81
:1083700020803E46002428883A88A978052CE3B25C
:108380004FEAD0100EDC7AB1EA780134FFF768FCCE
:108390000C2CF0D1FFF7FCFA3388013303F0010312
:1083A0003380F8BD002AEFD00022EEE7F4C10020B0
:1083B000FCC1002008E50020244B1B78002B43D093
:1083C000234B1B78C3F3450000F13E0202F03F024D
:1083D000032A03D80238C0B2FFF7BABD00F13A024F
:1083E00002F03F02022A03D80638C0B2FFF70CBEE3
:1083F00000F1370202F03F02052A03D80938C0B263
:10840000FFF728BE00F1310202F03F02052A03D82F
:108410000F38C0B2FFF768BE00F12B0202F03F0236
:10842000022A03D81538C0B2FFF7C8BE03F07E0396
:10843000302B01D1FFF71EBF462B01D1FFF74EBFF6
:10844000482B01D1FFF788BF704700BFFEC1002055
:1084500008E50020704700002DE9F043DFF828818F
:1084600098F80030ADF6646D06460C4604ADABB925
:10847000424F386879682B4603C3B8681860FF23F9
:108480002A706B70AB70EB703D4A3E48142329464E
:108490002B810AF03FF9012388F8003004EB4403F4
:1084A000DB0003F5C163ADF804300023CDE90233EE
:1084B000304600952946802648F20C0748F2060C03
:1084C0009C4223DC302101FB045101F5406348F25A
:1084D000060001F1300221F8020B8A42FBD19342DF
:1084E0001146F6D14FF400421A805A809A80DA8001
:1084F0001A815A819A81DA8101231A4669462148F4
:108500000AF0CCF90DF6646DBDE8F08390F80080B8
:10851000002246FA02FE1EEA080F14BFBE46E646D7
:1085200021F812E00132082AF3D190F8019001F10C
:10853000100E002246FA02F818EA090F02F10102B1
:1085400014BFB846E046082A2EF8028BF2D190F804
:10855000029001F1200E002246FA02F818EA090FF3
:1085600002F1010214BFB846E046082A2EF8028B39
:10857000F2D1013303303031A2E700BF94E00300B1
:108580005584020098BC0020FFC100200322FFF7A1
:1085900063BF10B5012304468375407B01F0AEFA3A
:1085A000A07B01F0C7FA01F073FA6368E16904F196
:1085B0000C0013B1BDE81040184710BD70B5437AE8
:1085C0000646DBB98488A4F5AE4465010C4C6219FB
:1085D00005F10C00D1699268204402B190472C4407
:1085E000607B01F093FAA07B01F0ACFA01F050FA45
:1085F000044A002333703372B372138070BD00BF1E
:1086000074BC002000C200202DE9F8438B78074697
:1086100073B1144E96F90020013209D0124CDFF8E4
:108620004C9000254FF0010896F90030AB4201DA7A
:10863000BDE8F883237B8BB1238ABB4203D1B9F811
:108640000030BB420AD0A37D84F8148013B92046C1
:10865000FFF79FFF04F10C00FFF7B0FF0135203456
:10866000E2E700BFA0BC002074BC002000C20020D4
:10867000F8B5A0F5AE44FF2C074629D81B4B1C4E7D
:1086800093F90000A4B222B29042B8BF1C706401FA
:1086900035198B786B758A782B7BDAB101332B73A4
:1086A0002F8201F047FB688201F07CFA687301F0C9
:1086B0001FFAA87301F038FAAB7BE9691843A87375
:1086C000335904F10C00304403B19847094B1F8023
:1086D0000120F8BD002BFBD0AB7D002BF8D004F1BE
:1086E0000C003044FFF76AFFF2E700BFA0BC002097
:1086F00074BC002000C200202DE9F843154B93F90B
:1087000000200132994620D1BDE8F883640108EBCE
:1087100004052E8B2B7B002E08BFC82673B1688AF8
:1087200001F014FBB04209D9AB7D13B92846FFF71D
:1087300030FF04F10C004044FFF740FF013799F986
:108740000030FCB29C42E1DDDEE70027DFF8088064
:10875000F5E700BFA0BC002074BC0020014B1860EE
:10876000704700BF04C20020024B186808B10368BC
:108770001847704704C200202DE9F0411A4B1B68CE
:108780000646002B2ED0194C5B6898472378580773
:1087900028D5D90707D5164B16491888000440F08C
:1087A000030006F099FA124FDFF850800025237875
:1087B000DA0707D53888725D0004414640F00300AF
:1087C00006F08EFA0135082DF1D12378DB0709D5A3
:1087D000074B09491888000440F00300BDE8F04148
:1087E00006F07ABABDE8F08104C2002097C20020EA
:1087F00048C10020A0E103003AF40300B2E1030005
:10880000024B1B680BB19B681847704704C20020DD
:10881000054B1988814205D01880044B1B680BB1A9
:10882000DB681847704700BF0AC2002004C200205E
:10883000054B1988814205D01880044B1B680BB189
:108840001B691847704700BF08C2002004C20020FF
:108850000120704708B501F05DFA02F035FB01F028
:10886000D1FBBDE80840FFF7CBBA000038B5154C86
:1088700023780546580720D5D90707D5124B134949
:108880001888000440F0030006F026FA2378DA077F
:1088900008D50D4B0E49188800042A4640F0030005
:1088A00006F01EFA2378DB0707D5074B094918881D
:1088B000000440F0030006F00FFA2846BDE83840F7
:1088C000FEF7BEBA97C2002048C10020B8E10300FD
:1088D000CBE103003AF403002DE9FF4702F018FC56
:1088E000FFF7B6FF002850D0334EDFF8D4900024B5
:1088F00037465FFA84F8404602F0A4FA36F814507E
:10890000854282463ED099F80030980701D502F0A2
:108910009FFA85EA0A050023ADB245FA03F1C907BB
:10892000DAB22CD501259D401AEA050F14BF0123A8
:1089300000238DF800208DF802308DF8018001F0C1
:10894000F9F940F001006B46ADF8040093E803002C
:1089500000F046F837F814306B4027F81430174C05
:1089600001F06EFDFFF700FF2378834220D0FFF770
:10897000FBFE207004B0BDE8F047FFF777BF01337E
:108980000C2BCAD10134042CB3D14FF6FF73ADF8D0
:10899000083000238DF80A3001F0CCF940F00100D6
:1089A000ADF80C0004AB13E9030000F019F8D6E7AA
:1089B00004B0BDE8F08700BF0EC200200CC200204A
:1089C00097C2002038B5054D044645F001054FF427
:1089D0007A40A847013CFAD138BD00BFD0E103007E
:1089E00084B06B4683E803000022ADF80E2093E8C4
:1089F000030004AB0290ADF80C1013E9030004B0BF
:108A000000F01ABE008800F0C5BF10B5044600286B
:108A100000F0D380822813D1FFF7A6FE810700F172
:108A2000CC80392000F0E8FF01F032F86420FFF735
:108A3000C9FF392000F0E8FFBDE8104001F028B878
:108A400083280ED1FFF790FEC20700F1B6805320B5
:108A500000F0D2FF01F01CF86420FFF7B3FF5320B1
:108A6000E8E784280ED1FFF77FFE430700F1A580D9
:108A7000472000F0C1FF01F00BF86420FFF7A2FFD0
:108A80004720D7E7031FDBB2A02B08D802F016F867
:108A9000002840F09280204600F0AEFFCCE700F1C5
:108AA0002003DBB2072B07D800F007040120A04009
:108AB000C0B201F023F8BFE700F15B03DBB2022B89
:108AC0000BD8A52807D0A6280CBF82208320BDE89C
:108AD0001040FFF79DBE8120F9E700F15803DBB29B
:108AE000142B62D8A8282ED0A9282ED0AA282ED0A0
:108AF000AB282ED0AC282ED0BB282ED0BC282ED010
:108B0000AD282ED0B0282ED0AE282ED0AF282ED013
:108B1000B1282FD0B22830D0B32831D0B42832D0E9
:108B2000B52833D0B62834D0B72835D0B82836D0B9
:108B3000B92837D0BA2840F22A2018BF0020BDE853
:108B40001040FFF775BEE220F9E7E920F7E7EA20D9
:108B5000F5E7B520F3E7B620F1E7B320EFE7B4205F
:108B6000EDE7B720EBE7CC20E9E7CD20E7E740F2DF
:108B70008310E4E74FF4C570E1E74FF4C970DEE716
:108B80004FF4CA70DBE740F22120D8E740F22320FF
:108B9000D5E74FF40970D2E740F22520CFE740F245
:108BA0002620CCE740F22720C9E7EF2805D901F0BD
:108BB000B1FABDE8104001F09FBB10BD08B5002818
:108BC00058D082280FD1FFF7CFFD810752D5392029
:108BD00000F012FF00F05CFF392000F015FFBDE847
:108BE000084000F055BF83280AD1FFF7BDFDC2073A
:108BF00040D5532000F000FF00F04AFF5320ECE77F
:108C000084280AD1FFF7B0FD430733D5472000F091
:108C1000F3FE00F03DFF4720DFE7021FD2B2A02A9B
:108C2000DBD900F12002D2B2072A07D800F00703EF
:108C300001209840C0B200F069FFD0E700F15B026C
:108C4000D2B2022A04D80020BDE80840FFF7E0BDF8
:108C500000F15802D2B2142A04D80020BDE808401E
:108C6000FFF7E6BDEF2805D901F0BEFABDE80840E0
:108C700001F042BB08BD08B528B100F03FFFBDE8D8
:108C8000084000F005BF08BD08B528B100F03EFF60
:108C9000BDE8084000F0FCBE08BD00002DE9F0472B
:108CA00090F80690857807460C464FEA19190DB1E1
:108CB00000F050FF00F0E2FE804670B125B304F1F1
:108CC0002003DBB2072B1FD9022000F0C3FE00F007
:108CD000D5FE80F001005FFA80F8C4F303360F2E52
:108CE00000F2B180DFE816F0130013005A005A00BA
:108CF000AA00C400AF00AF00F800AF00500150015F
:108D0000B001AF00AF00B9014FF00008E5E7C4F3D0
:108D10000723C4F3032613F0F00F18BF3601E4B2A3
:108D200095B156B104F12003DBB2072B304600D9D0
:108D30003CB900F0E3FE00F0ABFE2046FFF765FE15
:108D400011E000F0F7FEF6E72046FFF737FF56B1D7
:108D500004F12003DBB2072B304600D9DCB900F068
:108D6000D5FE00F095FEB8F1000F00F07D8100F017
:108D700061FE10F0010040F07781B87000F052FE03
:108D800000F066FD384600F073F900F04BFEBDE8D8
:108D9000F04700F067BD00F0D5FEE2E7C4F307231B
:108DA00003F0F003C4F30326202BE4B218BF36010E
:108DB00064B1012C2CD0ADB3B9F1000F2CD0BB792C
:108DC000D907BAD56FF30713BB7125E09DB1B9F18F
:108DD000000F06D100F0E6FE3043C0B2FFF74BFFB4
:108DE000C1E7B9F1010FF5D100F0DCFE3043C0B2AC
:108DF00000F0CCFEB7E7B9F1000F05D100F0CCFED2
:108E00003046FFF741FFAEE7B9F1010FABD0F5E710
:108E100025B1B9F1050FA6D83046DFE7B9F1040F47
:108E2000A1D8EDE7B9F1000FEAD0392C02D15020DA
:108E3000FFF7C8FD2046FFF7C1FE94E7C4F3812386
:108E400033B1012B0CD0082E63D00B2E61D08AE7F2
:108E500025B1C4F30900FFF7DBFC84E72846FAE7F5
:108E600025B1C4F30900FFF7E3FC7CE72846FAE7E5
:108E7000E0B2CDB1F5280DD0F62810D0F42804D1F9
:108E80007A4A136843F00103136001F043F901F0DB
:108E900033FA68E7754A136843F00203F4E7734A4C
:108EA000136843F00403EFE7F5280BD0F6280ED043
:108EB000F42804D16D4A136823F00103136001F014
:108EC00093F9E4E7694A136823F00203F6E7674A77
:108ED000136823F00403F1E714F4407F27D1C5B9E8
:108EE000E206C4F3421048BF0F254FEA800048BF96
:108EF000854004F00F03C4F3812448BFED43834051
:108F0000022C45EA03000CD00ED8012C06D000F04C
:108F100075FCFFF729FCFDF793FF24E700F066FCE2
:108F2000F7E700F073FCF4E700F05DFCF1E7C4F351
:108F30000122D3B2EDB102F00103002BE9D0C4F35A
:108F40004210830004F00F0000FA03F214F0100046
:108F50001CBF0F209840C4F3812418BFC043022CCB
:108F600040EA02000AD00CD8012C04D000F098FC92
:108F7000CFE75B08E1E700F08BFCCAE700F098FC64
:108F8000C7E700F051FCC4E75FFA84FAAAF1F003E6
:108F9000042B3DD8DFE803F00310161D260045B171
:108FA000B9F1040F3FF64FAFC4F3042000F066FCA4
:108FB00049E7B9F1050FF5E7C4F3042035B100F036
:108FC00047FC40E7C4F30420002DF8D000F04AFC31
:108FD00039E725B1C4F3042000F035FC33E700F095
:108FE0002FFC30E74DB1C4F30424204600F030FCE0
:108FF0000321204600F026FD25E7012000F02AFD90
:10900000B9F1010F7FF61FAF022000F023FD1AE730
:109010004DB1B9F1000F03D05046FFF7F6FC12E74F
:10902000C4F30420CBE7B9F1000F0AD0BAF1390F2D
:109030000CBF50203220FFF7C5FC5046FFF7BEFDA5
:1090400001E7C4F30420C1E7C4F30322E1B23846C8
:10905000FEF788F900F05CFB85E6C4F30322E1B279
:109060003846FEF781F97EE6BDE8F08734E500205A
:1090700037B583880288ADF804200446C3B1BDF833
:1090800004204FF6FF739A4212D0FDF7F3FE78B139
:109090002188A07800F08CFC054600F011FC00F05F
:1090A000A1FB2946204603B0BDE83040FFF7F6BDDE
:1090B00003B030BD08B500F04DFD00F061FD00F0DB
:1090C000E7FC01F03BFA01F017F90020FFF7A0FBE5
:1090D0000020BDE80840FFF7ABBB08B500F09CFCE2
:1090E000BDE80840FFF7E6BF08B500F017FDBDE892
:1090F0000840FFF7F2BFC0F303330E3303F00F0253
:109100000D2A0CD80123934013F4105FC1B217D17C
:1091100040F20330184004D113F010030BD10020AB
:109120007047F02902D003D8E729F8D8012070470A
:10913000F429F4D1FAE7E729F8D9F129F6D07047F4
:10914000C0F3C020704707B5ADF80400019800F0E7
:1091500021FC03B05DF804EBFFF7CDBF82B002AB9A
:1091600003E9030002B0704782B002AB03E90300D9
:1091700002B0704770B5094B094E1C78094D337821
:10918000A34200D170BD05EBC40355F83400596803
:109190000134FFF7E9FF04F00704F0E761C20020A3
:1091A00060C2002020C20020024B18685968FFF7F7
:1091B000DBBF00BF18C200202DE9F341274A937995
:1091C00013F0F00F0CD1937853B1254BDFF898C012
:1091D0001978244D4FF6FF769CF800308B4202D16F
:1091E00002B0BDE8F0819388002B33D0177892F855
:1091F00001E08DF804708DF805E0BDF80400B04280
:1092000028D0C8002C1894F80180F04522D115F818
:1092100031E0BE451ED1A778E7B9A488A3428ABF32
:10922000F31AE31A1B19C72BCCBF002301238BB100
:109230009379012161F3071393712B1807489A79E9
:1092400061F307129A71FFF713FF02B0BDE8F04116
:10925000FFF790BF013101F00701BDE718C2002000
:1092600061C2002020C2002060C200202DE9F0472A
:10927000A54C05468EB0A7880068218808900DF19E
:10928000200C2A786B7895F80280B5F80490ADF838
:10929000041094F800E06078002F00F03D818EB259
:1092A0004FF6FF718E4200F03781A678002E00F055
:1092B00033814F458ABFCF1BA9EB07074F44C72F08
:1092C000A179CCBF0027012701F0F00A002F00F0A0
:1092D000C980BAF1000F7BD18DF809008DF808E044
:1092E000BDF808C04FF6FF708445464618D08DF88B
:1092F00020208DF821302088BDF820C084450FD172
:1093000076B9012363F30711A171FFF74DFF7E4882
:10931000FFF7AEFEA379AB7130460EB0BDE8F08723
:10932000B9F1000F08D1B8F1000FF5D0A37943F0DF
:109330000103A3710026EFE78DF81C208DF81D3086
:10934000BDF81C004FF6FF718842ECD0B8F1000F59
:10935000ECD16E486E4990F800C009786D486145BF
:109360000FD18DF820208DF82130089800F012FBE5
:10937000C0F30332C3B2032A1DD8DFE802F013138F
:10938000212100EBC10494F801E09E4506D110F8BC
:1093900031E0964502D1A478002CBDD1013101F015
:1093A0000701DCE710F4706F01D0002BB4D020333C
:1093B000DBB2072BB0D92846FFF75AFE3E46ABE793
:1093C00010F4706FF3D0AA7912F0F00FEFD1A3E789
:1093D0008DF80D008DF80CE0BDF80C604FF6FF70B5
:1093E000864216D08DF820208DF821302088BDF8D7
:1093F000206086420DD1B8F1000F0AD1A97128462C
:10940000FFF736FE2B6823606B686360FFF7CCFEC6
:10941000D4E78DF820208DF821300898FFF793FECF
:10942000E0B1B8F1000F19D0A3791F2B0CD9228815
:10943000ADF8282000228DF82A20ADF82C908DF868
:109440002E300AA8FFF714FE2B6823606B68636058
:10945000FFF7B2FEFFF7A8FE01265DE72846FFF7FB
:1094600007FEF9E7BAF1000F13D18DF820208DF82F
:1094700021308DF82280ADF824909CE80300FFF79E
:109480006DFE2148FFF7F4FD27606760FFF78CFE53
:1094900050E78DF811008DF810E0BDF810704FF610
:1094A000FF70874214D08DF820208DF8213020885D
:1094B000BDF8207087420BD1B8F1000F08D1A97117
:1094C0002846FFF7D5FDC4F80080C4F8048023E7E0
:1094D0008DF820208DF821300898FFF734FE002801
:1094E000BCD0B8F1000FB9D0A3791F2BACD922881A
:1094F000ADF8302000228DF83220ADF834908DF890
:1095000036300CA89EE700BF18C2002060C20020C1
:1095100061C2002020C20020002F72D08DF814E01C
:109520008DF81500BDF814104FF6FF76B14268D0E3
:10953000A178002965D14F4539D8A9EB0707C72F76
:10954000CCBF00260126002E4CD04646002E85D0EA
:109550008DF818E08DF81900BDF818004FF6FF716E
:1095600088422DD08DF820208DF821302188BDF83B
:109570002000884224D1A379DA071CD413F0F00F1D
:1095800019D003F0F002F02A1CBFC3F3031201321A
:10959000AB711CBF62F30713AB712846FFF768FD80
:1095A0002B6823606B686360FFF7FEFDB4E6F61B73
:1095B0004E44C72EC4E72B6823606B686360ABE63C
:1095C0008DF820208DF821300898FFF7BCFD002889
:1095D0007FF43AAFA379284643F00103A371FFF764
:1095E00047FD99E68DF82280ADF824908DF8202073
:1095F0008DF821309CE80300FFF7B0FD266066601F
:10960000D2E7B8F1000F3FF429AF8DF820208DF894
:1096100021300898FFF797FD064600283FF41EAF5B
:109620002B6823606B6803486360FFF7EBF9FFF773
:10963000C3FDB9E718C20020F0B587B06C4684E8D6
:1096400003002046FFF712FE2D4E2E4D074688B12F
:10965000BDF80430BDF80020ADF8082043B192B247
:109660004FF6FF739A4203D094E80300FFF77CFDA6
:10967000254C40E094E8030004AB83E80300BDF808
:109680000420BDF81010ADF80C10002AF0D089B2FB
:109690004FF6FF729142EBD034782978621C02F0C9
:1096A00007028A420BD0184F327003CB07EBC40C71
:1096B00047F83400CCF80410FFF75CFDD8E7FFF75B
:1096C00013FD124B37702F701F605F6007B0F0BD45
:1096D00004EBC000FFF7CAFD0028F7D02B7804EB9D
:1096E000C30254F833005168FFF73EFD2B78013375
:1096F00003F007032B70287833788342E8D1E5E73D
:1097000060C2002061C2002020C2002018C20020D8
:10971000F8B5034670B12B4E002746F001061878C5
:10972000732803F1010406D8042827D201280ED09B
:10973000022826D0F8BD75283DD032D3A0F184038D
:109740006F2BF7D800F07F00FFF738FA0EE09C1C73
:109750005B7803F12002D2B2072A0ED803F0070388
:109760009840C0B200F0FCF900F092F93D46013D8E
:10977000EDB2FF2D22D12346D1E71846FFF745F978
:10978000F4E758789C1C00F12003DBB2072BDBD8F0
:10979000012300F0070003FA00F0C0B200F0E8F97E
:1097A000E2E75D789C1C013DEDB2FF2DDED04FF469
:1097B0007A40B047F7E79C1C5F78D7E74FF47A40D0
:1097C000B047D4E7E0E103007047000008B5FFF7B9
:1097D000FBFF034B1860BDE80840FFF77EBC00BFED
:1097E00064C200207047FFF7F1BF0000024B1B6806
:1097F0001843FFF7EBBF00BF64C20020024B1B6899
:109800001840FFF7E3BF00BF64C20020024B1B6893
:109810005840FFF7DBBF00BF64C20020704708B5A7
:10982000FFF7FCFF08BD000008B5FFF7F8FF034B8A
:109830001860BDE80840FFF750BC00BF68C20020B8
:109840000020FFF7F1BF012303FA00F0FFF7ECBFA0
:10985000012303FA00F0024B1B681843FFF7E4BF33
:1098600068C20020012303FA00F0034B1B6823EABF
:109870000000FFF7D9BF00BF68C20020012303FA30
:1098800000F0024B1B685840FFF7CEBF68C20020B3
:10989000024B1B681843FFF7C7BF00BF68C2002018
:1098A000024B1B681840FFF7BFBF00BF68C2002013
:1098B000024B1B685840FFF7B7BF00BF68C20020CB
:1098C00070470000C0F3072303EB430300EB83035F
:1098D00003F0FF0337B503F0070201209040DB08D7
:1098E0000A4A03EB8303C0B21344002413F8015F58
:1098F00021FA04F242F300026A40024001346A4055
:10990000052C1A70F2D103B030BD00BF6BC200202D
:10991000C0F3072303EB430313B500EB830000F010
:10992000FF0000F007040949C00800EB8000002296
:10993000014410468B5CE34003F001039340013285
:109940001843052AC0B2F5D102B010BD6CC2002088
:1099500073B50E4BADF804001D680D4B1B681F243A
:109960001D4325FA04F3DB0766B2E0B206D414F116
:10997000FF34F6D20026304602B070BD0199FDF7E3
:109980000DFD80B20128F2D0F5E700BF68C20020CB
:1099900064C2002007B5ADF804000198FFF7D8FFB6
:1099A0000199C0B203B05DF804EBFDF7F7BC00000D
:1099B00013B5104BADF804101B782BB1019802B011
:1099C000BDE81040FFF7E6BF70B10198FFF7C0FF98
:1099D000C4B221460198FFF775FF0199204602B0F5
:1099E000BDE81040FDF7DABC0198FFF791FF04468F
:1099F000F3E700BF16C20020024B0146186800F0D2
:109A00005AB900BFA4BC0020024B0146186800F000
:109A100054B900BFA4BC0020014B186800F04FB936
:109A2000A4BC0020024B93F90000C0F3C7007047AC
:109A300093C20020024B187800F00700704700BF67
:109A400093C20020024B41EAC0011970FFF700BF2A
:109A500093C20020084A92F9003023EA000040B285
:109A60001070420706D1DBB2834203D0C0F3C700B7
:109A7000FFF7F8BE704700BF93C20020034B187871
:109A800010F0070018BF0120704700BF93C20020EC
:109A900038B5124C124922680978117021681148B2
:109AA0000A780078104D02430A7021680F480A783E
:109AB000007802430A7095F900204AB123681978AA
:109AC0000A431A70206800F0C4F808B100232B7014
:109AD0002068BDE83840FEF74FBE00BFA4BC0020A0
:109AE00095C2002096C2002094C2002092C200209D
:109AF000014B1878704700BF95C20020024A1378C6
:109B000018431070704700BF95C20020024A1378B6
:109B100023EA00001070704795C20020014B00221C
:109B20001A70704795C20020014B1878704700BF2B
:109B300096C20020024A137818431070704700BF85
:109B400096C20020024A137823EA00001070704782
:109B500096C20020014B00221A70704796C2002066
:109B6000024A137818431070704700BF92C2002059
:109B7000024A137823EA00001070704792C2002056
:109B8000014B00221A70704792C20020014B1870DE
:109B9000704700BF94C20020014B00221A7070472A
:109BA00094C20020014B1878704700BF94C2002077
:109BB000030C002B16BF184600231023020A1CBFFB
:109BC0001046083302091EBF04331046DBB2820878
:109BD0001EBF02331046DBB242081CBF0133DBB2AA
:109BE0001846704708B54FF6ED61002000F006FA00
:109BF0000021022000F000FA0021032000F0FCF90F
:109C00000021042000F0F8F90021052000F0F4F90B
:109C100000210820BDE8084000F0F2B908B5002096
:109C200000F0A2F94FF6ED63C31A5842584108BD3F
:109C3000022000F071B9032000F06EB90146032044
:109C400000F0DAB9042000F067B90146042000F002
:109C5000D3B9421C00F10803002012F8011B09B11E
:109C60000130C0B29A42F8D1704730B54FF0FF339F
:109C7000851C002215F8014B8C420ED0B3F1FF3F3A
:109C800002D1002C08BF13460132D4B2062C62B2B6
:109C9000F0D15A1C01D01844817030BD10B5831C1E
:109CA0000022083013F8014B8C4208BF03F8012C46
:109CB0008342F7D110BDFFF7D8BFFFF7EFBF0023F6
:109CC00043708370C370037143718371C3717047B4
:109CD00008B5084A084813680A3313600021074A88
:109CE00005F0C4FB00224FF4A4710548BDE808400C
:109CF00005F0CEBBB8C20020E8E10300D19C020011
:109D000098C20020024A136818441060704700BFD0
:109D1000B8C2002008B5054A0548002105F0A6FB99
:109D200018B1BDE8084005F057B908BDD19C020044
:109D3000E8E10300014B186880B27047B8C2002008
:109D4000014B1868704700BFB8C20020054B1A6865
:109D50001B6892B2904288BF03F1FF33181A80B299
:109D6000704700BFB8C20020024B1960024B186058
:109D7000704700BFBCC20020C0C2002041DF704756
:109D800030B5354D4268354B017853F82230344AAE
:109D90000446288852F821203249000487B040F058
:109DA000030004F0A7FF2378052B2BD8DFE803F08E
:109DB000032C2A2C2A48616821BB2B4B01221A70E4
:109DC00001A8122210F0EFFB01A806F0DFFA08B19B
:109DD00005F002F92888BDF808202449000440F065
:109DE000030004F07DFF2888BDF80A202049000404
:109DF00040F0030004F074FFBDF80A30222B01D9B3
:109E000006F072FA07B030BD6368002BFAD12888DB
:109E1000A2681849000440F0030004F061FF28889C
:109E2000A2891549000440F0030004F059FF288876
:109E3000E2891249000440F0030004F051FFE1E719
:109E40006368002BDED128880D49000440F0030030
:109E500004F042FFD6E700BF48C10020A8BC0020A4
:109E600098E20300ECE10300F0C2002004E20300EA
:109E70001CE2030054E2030066E2030076E2030002
:109E800089E203001FB51E4806F05CF806F070F882
:109E900008B105F0A1F81B4A13784BB30021082242
:109EA0006846CDE9001110F07EFB6B46164A41F280
:109EB00001014FF4805006F03BFAE0B9CDE9020011
:109EC00002A9114806F052F908B105F085F82422DC
:109ED00003990E4810F043FB0B4806F06BF908B1EC
:109EE00005F07AF80A4B01221A7005B05DF804FB00
:109EF000FFF744FFD0E70749034806F0BDF9EEE756
:109F0000819D0200F0C20020F4C20020C4C20020E3
:109F1000E8C20020B0E2030010B5044B1B780446F1
:109F20000BB9FFF7AFFF024B185D10BDE8C2002070
:109F3000C4C2002038B5084B1B7804460D460BB947
:109F4000FFF7A0FF054B1D55054B01221A70054B6D
:109F500000221A6038BD00BFE8C20020C4C2002041
:109F6000E9C20020ECC2002038B50546FFF7D4FF57
:109F70000446681CFFF7D0FF44EA002080B238BDD9
:109F800038B5094B1B7805460C460BB9FFF77AFF2D
:109F9000064B5C552B44240A5C70054B01221A7059
:109FA000044B00221A6038BDE8C20020C4C2002061
:109FB000E9C20020ECC2002038B50B4B1B780546E7
:109FC0000C460BB9FFF75EFF084844552844230AA6
:109FD0004370230C8370064B01221A70054B240E2C
:109FE0000022C4701A6038BDE8C20020C4C200203C
:109FF000E9C20020ECC20020FFF79CBFFFF7C0BF02
:10A00000FFF7DABF08B5FFF709FE08B9FFF7EAFD69
:10A01000FFF70EFE054B1870FFF714FE044B188077
:10A02000FFF709FEBDE80840FFF7DDBB97C200203F
:10A0300038E50020194B1B78D90709D5184B18783B
:10A0400000EB800080087F2823D820B3C0B270477F
:10A050009A0705D5124B187800EB80004008F2E70C
:10A060005B0704D50E4B187800EB8000EBE70D4B37
:10A070001B7863B10C4A0A4912780878934200EBC6
:10A0800080003EBF584390FBF2F080B2DBE7052032
:10A09000DCE77F2070470120704700BF07C3002026
:10A0A000EABC002008C30020EBBC0020154B1B7845
:10A0B000D90705D5144B1878800800B3C0B2704793
:10A0C0009A0703D5104B18784008F6E75B0705D5CB
:10A0D0000D4B18787F28F0D97F2070470B4B1B78E9
:10A0E0005BB10B4A084912780878934236BF10FBDF
:10A0F00003F080B290FBF2F0ECE70120DEE70120F4
:10A10000704700BF07C30020ECBC002008C300203C
:10A11000EDBC0020F02808B505D1FFF78BFF4042C9
:10A120002F4B987008BDF12802D1FFF783FFF7E7A6
:10A13000F22805D1FFF77EFF4042294B5870F1E726
:10A14000F32802D1FFF776FFF7E7F92804D1FFF7EC
:10A15000ADFF234BD870E5E7FA2803D1FFF7A6FF40
:10A160004042F6E7FB2805D1FFF7A0FF40421C4B19
:10A170001871D7E7FC2802D1FFF798FFF7E7F4281A
:10A1800004D1174A137843F0010313E0F52804D1F2
:10A19000134A137843F002030CE0F62804D1104A66
:10A1A000137843F0040305E0F72805D10C4A13782F
:10A1B00043F008031370B5E7F82804D1084A137870
:10A1C00043F01003F6E7FD2801D1064ADAE7FE283E
:10A1D00001D1044ADDE7FF28A4D1024AE0E700BF2D
:10A1E00002C3002007C30020F028404B14D193F98C
:10A1F0000220002A01DA00229A7093F9012052B954
:10A2000093F902203AB993F9032022B993F9043063
:10A210000BB9374A13707047F12804D193F9022023
:10A22000002AE8DCE9E7F22893F9012004D1002AAA
:10A23000E3DA00225A70E0E7F32802D1002AF8DCC2
:10A24000DBE7F92806D193F90320002AD5DD0022A7
:10A25000DA70D2E7FA2804D193F90320002ACCDA85
:10A26000F5E7FB2806D193F90420002AC5DA00227D
:10A270001A71C2E7FC2804D193F90420002AF6DC05
:10A28000BBE7F42804D11A7822F001021A70B4E76F
:10A29000F52803D11A7822F00202F7E7F62803D155
:10A2A0001A7822F00402F1E7F72803D11A7822F095
:10A2B0000802EBE7F82803D11A7822F01002E5E74C
:10A2C000FD2805D10B490A7822F001020A7094E7B3
:10A2D000FE2804D107490A7822F00202F6E7FF2897
:10A2E0008BD104490A7822F00402EFE702C3002070
:10A2F00008C3002007C3002038B5424B1B781B075A
:10A3000077D5414C41492088414D000440F003007D
:10A3100004F0E2FC20882A783E49000440F0030063
:10A3200004F0DEFC20883C49000440F0030004F007
:10A33000D3FC208895F901203849000440F003003F
:10A3400004F0CEFC20883649000440F0030004F0FD
:10A35000C3FC208895F902203049000440F0030036
:10A3600004F0BEFC20882E49000440F0030004F0F5
:10A37000B3FC208895F903202849000440F003002D
:10A3800004F0AEFC20882649000440F0030004F0ED
:10A39000A3FC208895F904202049000440F0030024
:10A3A00004F09EFC20881F49000440F0030004F0E4
:10A3B00093FC20881C4B1D491A78000440F00300D0
:10A3C00004F08EFC20881A49000440F0030004F0D9
:10A3D00083FC2088174B15491A78000440F00300CD
:10A3E00004F07EFC20881449000440F0030004F0CF
:10A3F00073FC0748FEF704FAFFF79CFC0F4B18802C
:10A4000038BD00BF97C2002048C100206AE40300A5
:10A4100002C30020CBE103008DE40300F4EA030053
:10A42000E8F803008FE4030008C3002092E403006F
:10A4300027DB030007C3002050E7030000C3002010
:10A44000F8B5394B1888FFF781FC38490A78A2B172
:10A45000374B1B7898420FDB364C94F9013094F956
:10A46000027094F9036094F9045063B9002F58D135
:10A47000002E56D1002D54D1F8BD2F4B1B7803EB85
:10A4800083035B00E6E7FF2A01D001320A70002B4C
:10A4900002DDFFF7CFFD607094F90130002B03DA85
:10A4A000FFF7C8FD40426070002F02DDFFF7C2FDDC
:10A4B000A07094F90230002B03DAFFF7BBFD404295
:10A4C000A07094F9012072B194F9021059B1B5232A
:10A4D0005A43121203FB01F308BF01221B1208BFEB
:10A4E00001236270A370002E02DDFFF7DFFDE07034
:10A4F00094F90330002B03DAFFF7D8FD4042E070F7
:10A50000002D02DDFFF7D2FD207194F90430002BFD
:10A5100003DAFFF7CBFD40422071BDE8F840FFF7BA
:10A52000EBBEFF2AB1D1BFE700C3002008C3002063
:10A53000E9BC002002C30020E8BC0020044A00233C
:10A5400013601371034A1370034A1370704700BFFE
:10A5500002C3002008C3002007C30020034B0449A6
:10A560001888000440F0030004F0B6BB48C1002086
:10A5700006E803000138052861D8DFE800F003157C
:10A58000243342512E4B1A781144FE29C4BFFF22B6
:10A590001A702C4AD8BF197010882B491A780004F9
:10A5A00040F0030004F09CBB284B1A781144FE29AC
:10A5B000C4BFFF221A70234AD8BF197010882449DB
:10A5C0001A780004ECE7234B1A781144FE29C4BF23
:10A5D000FF221A701B4AD8BF197010881E491A78BA
:10A5E0000004DDE71D4B1A781144FE29C4BFFF2289
:10A5F0001A70144AD8BF1970108819491A780004C3
:10A60000CEE7184B1A781144FE29C4BFFF221A70F6
:10A610000C4AD8BF1970108813491A780004BFE794
:10A62000124B1A781144FE29C4BFFF221A70054A42
:10A63000D8BF197010880E491A780004B0E7704727
:10A64000E8BC002048C100201FEA0300E9BC00204C
:10A650002EEA0300EABC002040EA0300EBBC002025
:10A6600053EA0300ECBC002068EA0300EDBC0020C4
:10A6700081EA03000138052861D8DFE800F00315FE
:10A68000243342512E4B1A788A4296BF0022511A27
:10A690001A702C4A88BF197010882B491A78000448
:10A6A00040F0030004F01CBB284B1A788A4296BF86
:10A6B0000022511A1A70234A88BF19701088244941
:10A6C0001A780004ECE7234B1A788A4296BF0022DE
:10A6D000511A1A701B4A88BF197010881E491A78BF
:10A6E0000004DDE71D4B1A788A4296BF0022511AFA
:10A6F0001A70144A88BF1970108819491A78000412
:10A70000CEE7184B1A788A4296BF0022511A1A7067
:10A710000C4A88BF1970108813491A780004BFE7E3
:10A72000124B1A788A4296BF0022511A1A70054AB3
:10A7300088BF197010880E491A780004B0E7704776
:10A74000E8BC002048C100201FEA0300E9BC00204B
:10A750002EEA0300EABC002040EA0300EBBC002024
:10A7600053EA0300ECBC002068EA0300EDBC0020C3
:10A7700081EA030010B5094B094904461888000412
:10A78000224640F0030004F0ABFA0120A040FFF79E
:10A790002AF8BDE81040FEF7A7BC00BF48C1002062
:10A7A0009CEA030010B5094C09492088000440F0D8
:10A7B000030004F091FA20880649000401230522D1
:10A7C00040F00300BDE8104004F094BA48C10020F6
:10A7D000D6E80300D1E90300262838B54BD81E2857
:10A7E00080F021810E28914C00F0B18010D807280C
:10A7F00000F08B800B286DD0062872D08B4B8C49D3
:10A800001888000440F0030004F066FA00207BE0A2
:10A81000162800F0D88013D81028EFD1854D208855
:10A820002B78C3F3C00282F0010262F3C3032B70E2
:10A8300000041B0740F0030040F19C807E4914E0B7
:10A84000192800F099801B28D8D17A4D20882B78C0
:10A85000C3F3400282F0010262F34103000499074E
:10A860002B7040F0030070D5744904F035FA2B7852
:10A8700043F0010367E038282CD009D8292803D0F9
:10A88000352801D02728B9D10020FFF773FF1FE03A
:10A890004328F9D004D83A28B0D33938C0B2F4E705
:10A8A0004828ABD1FEF720FC604B65491888654D00
:10A8B000000440F0030004F00FFA4FF47A7445F0FE
:10A8C00001054FF47A40A847013CFAD1FBF728FF75
:10A8D000012019E0554B5C491888000440F0030042
:10A8E00024E0544A137803F0F1036FF3000313706C
:10A8F000FFF734FE20885549000440F0030004F0BF
:10A90000EBF9534B0120187038BD4A4D20882B7845
:10A91000C3F3000282F0010262F30003000413F0AB
:10A9200001042B7040F0030003D04A4904F0D4F92D
:10A93000CEE7494904F0D0F92B7864F3410364F37E
:10A94000820364F3C3032B70C2E74449EEE7394D39
:10A9500020882B78C3F3800282F0010262F3820325
:10A9600000045A072B7040F0030001D53C497CE7F6
:10A970003C49DBE73C49D9E720883C49000440F0EA
:10A98000030004F0A9F920883949000440F00300CD
:10A9900004F0A2F920883749000440F0030004F0D5
:10A9A0009BF920883449000440F0030004F094F936
:10A9B00020883249000440F0030004F08DF920881B
:10A9C0002F4900048AE720882E49000440F0030044
:10A9D00004F082F92588FDF7C7FE2D0445F0030534
:10A9E00002462949284604F07BF92088274B28494C
:10A9F0001A78000440F0030004F072F92088254B17
:10AA000025491A78000440F0030004F069F924880D
:10AA1000FFF796F9240444F0030402461F49204638
:10AA200004F05EF954E71D3838E700BF48C1002044
:10AA300004E8030097C200209EE6030064E60300DA
:10AA40002FE60300D0E803009FE403002BE6030099
:10AA500009C300204BE6030057E6030071E603003C
:10AA60007FE603008EE60300AAE60300B7E60300D4
:10AA7000C6E60300E0E6030018E7030053E703001F
:10AA80008FE703009BE70300A9E703003ABD00201E
:10AA9000C3E703007ECA0020DAE70300EDE7030006
:10AAA00000207047002070471E38C0B209289ABFA6
:10AAB000014B185C0020704795E40300F8B5AE4EDA
:10AAC0003478012C0546374615D004D3022C51D0DA
:10AAD000002030700EE0A94B1B681B78222B27D179
:10AAE000FFF7DEFF18B92846FFF776FE00E00120E9
:10AAF00000F00100F8BDA14B1B681B78222B05D18B
:10AB0000FFF7CEFF0028EED02046F1E7FFF7CAFF9F
:10AB100070BB142D1DD00DD80B2D0FD0102D1BD0B8
:10AB2000974B98491888000440F0030004F0D4F8CB
:10AB30000020DFE7292D0CD0382DF1D1FFF70EFDD5
:10AB40008F4B91491888000440F0030004F0C4F8CA
:10AB50000EE000203870CDE7FFF724FE884B8B49CC
:10AB60001888000440F0030004F0B6F802233370A4
:10AB70000120BFE72328824C16D81E2880F0D08001
:10AB80000B2819D006D8072800F0DD8020887D49E1
:10AB90000004D9E7132831D01428F7D17C4B1A7858
:10ABA0001AB300221A7009E04B2800F0CA8012D8AC
:10ABB0002928F3D03828E9D1FFF7F4FD744B208819
:10ABC0001A78000440F00300002A00F0D280714996
:10ABD00004F086F8CCE7512800F0AD80522800F050
:10ABE000A4804E28D2D10A21A6E02088664900041C
:10ABF00040F0030004F070F80120ABE720886649BC
:10AC0000000440F0030004F067F820886349000462
:10AC100040F0030004F060F82088614B61491A7825
:10AC2000000440F0030004F05BF820885E49000453
:10AC300040F0030004F050F820885C49000440F024
:10AC4000030004F049F82088594B56491A7800044B
:10AC500040F0030004F044F820885349000440F019
:10AC6000030004F039F820885249000440F0030042
:10AC700004F032F82088504B4A491A78000440F01A
:10AC8000030004F02DF820884749000440F0030039
:10AC900004F022F820884949000440F0030004F041
:10ACA0001BF82088464B3F491A78000440F0030007
:10ACB00004F016F820883C49000440F0030004F03A
:10ACC0000BF820883F49000440F0030004F004F82A
:10ACD00020883D4B33491A78000440F0030003F00C
:10ACE000FFFF20883049000440F0030003F0F4FF28
:10ACF00020883649000440F0030003F0EDFF20886F
:10AD0000334B28491A78000440F0030003F0E8FFB1
:10AD100020882549000440F0030003F0DDFF4DE7E3
:10AD2000FFF7C2FE1A4B187048E70121184B18783C
:10AD3000FFF720FC42E70121154B1878FFF79AFC3A
:10AD40003CE70A21F2E7164B208822491E221A709E
:10AD5000174B32221A70184B0A221A70184B142201
:10AD60001A70194B08221A70194B28221A70000405
:10AD7000D1E71949EAE600BF09C30020A4BC0020BE
:10AD800048C1002004E803002BE603002DE803007F
:10AD90000AC30020BCE8030031E803003FE80300D9
:10ADA000E8BC002092E403003AF4030051E80300F9
:10ADB000E9BC002063E80300EABC002072E803005D
:10ADC000EBBC002083E80300ECBC002098E8030003
:10ADD000EDBC0020AFE80300C2E80300027903687D
:10ADE00082B033F81230ADF804309DF80430002002
:10ADF00063F307009DF8053063F30F2002B070473E
:10AE0000002973B5C0F3072014BF042100214608B0
:10AE1000094D0C2496FBF4F2114404FB1264012248
:10AE200035F91130A24012B2C0074CBF134393430F
:10AE300025F8113002B070BD0CC3002008B5FBF737
:10AE40001DFD08BD014B33F8100070470CC30020F6
:10AE50007047000030B500220C4C0D4D104654F8E0
:10AE600022101F298ABF2B464FF0A04301F01F017B
:10AE7000D3F81035CB40DB4303F00103934001329C
:10AE800018430C2A80B2EAD130BD00BFA4EA030007
:10AE90000003005030B50A4C0A4D0022012054F83E
:10AEA00022301F2B86BF03F01F0329464FF0A0411D
:10AEB000013200FA03F3042AC1F80835EFD130BD9E
:10AEC000D4EA03000003005038B54FF0A042174CFD
:10AED000174D40F20363C4F82C37C2F87037C4F83A
:10AEE0003437C2F80837FFF7D5FF00220C2055F899
:10AEF00022301F2B86BF03F01F0321464FF0A041D5
:10AF000003F5E07301320C2A41F82300EFD109491F
:10AF1000094A00230B8013804B8053808B809380E1
:10AF2000CB80D380FBF788FC38BD00BF0003005006
:10AF3000A4EA03000CC3002014C30020074B53F8FD
:10AF400020301F2B86BF03F01F0305494FF0A0419F
:10AF5000012202FA03F3C1F80C357047D4EA03006A
:10AF60000003005010B5FFF7E9FFFFF773FF044639
:10AF7000FFF790FF204610BD2DE9F0415C4D5D4F7D
:10AF800086B0002405942E46E0B2FFF7EBFF35F8BB
:10AF9000143083421CBF25F81400012304F101047E
:10AFA00018BF3B70042CEFD1524A137833B3013BE6
:10AFB000DBB2137013BB504FDFF850C1BE4637F8F9
:10AFC000130036F8132090424FEA43050FD00021BA
:10AFD00080EA020444FA01F0C00705D505980598F7
:10AFE000059805980130059001310C29F2D1013303
:10AFF000042B2EF8052025F80C20E0D13F49404CC9
:10B000000B7894F806800133DBB2FF2B08BF0023D6
:10B010000B70B8F1000F29D02046FFF7DFFEC6B253
:10B02000384DAB7923B32846FFF7D8FEC7B2354871
:10B030000978FFF7D3FEFF2FADF810000FD0324B89
:10B040001A783C2393FBF2F39DF81020891AC9B2B9
:10B050008B4211DBB8F1000F0CD1BE4202D8284D53
:10B06000A3794BBB012006B0BDE8F081FF26D7E7EE
:10B07000FF27DCE7BE42F2D9DFF8888018E04046BF
:10B08000FFF7ACFEADF80400C0B2B842E5D1002134
:10B090000198FFF7B5FEAA7952B12B79E87901330F
:10B0A000DBB2013AB3FBF0F100FB11332B71AA7153
:10B0B000AB79002BE3D1D0E72846FFF78FFEADF840
:10B0C0000400C0B2B042CDD101210198FFF798FE33
:10B0D000A279002AC4D02379E0790133DBB2013AA6
:10B0E000B3FBF0F100FB11332371A271B8E700BF8D
:10B0F00014C30020EEBC00201CC3002024C3002089
:10B10000F8BC0020F0BC0020FEF303000CC30020BC
:10B1100010B50448FFF730FF0446FBF785FE2046D4
:10B1200010BD00BF0CC3002033DF704708B503F02B
:10B1300071FC18B9BDE8084006F0BAB808BD704700
:10B1400010B54FF40041002003F0FEFB08B103F0FE
:10B1500043FF084C03F034FB0321204603F0EEFDCF
:10B160000123637206F08EF818B1BDE8104003F0B9
:10B1700033BF10BD00BD0020F8B50C680D46082C8B
:10B1800006464FF6FF7028BF082409F083FE00230F
:10B190002B604FF6FF77B84202D014F1FF3400D293
:10B1A000F8BD2B685A1C2A6026F8130009F072FEBD
:10B1B000F1E7000008B5084B08491888000440F082
:10B1C000030003F089FD09F0BDFE18B1BDE8084099
:10B1D00003F002BF08BD00BF48C10020F7EA03002A
:10B1E00010B5044601F0C2FB204609F0A1FE08B1EB
:10B1F00003F0F2FE054B064918880004224640F091
:10B200000300BDE8104003F06BBD00BF48C1002043
:10B21000E4EA030030B44FF08043D3F83824D10778
:10B2200001D5920730D5D3F8383403F00303032B4C
:10B230002AD0164C164D0022012054F822301F2B24
:10B2400086BF03F01F0329464FF0A041013200FAE8
:10B2500003F3042AC1F80C35EFD10E4C0C4D0E4807
:10B26000002254F822301F2B86BF03F01F0329460B
:10B270004FF0A04103F5E07301320C2A41F823009E
:10B28000EFD130BCFFF750BF30BC7047D4EA0300A9
:10B2900000030050A4EA03000C00030010B5074BA4
:10B2A0000749044618882278000440F0030003F0A0
:10B2B00017FD2378034A0133136010BD48C10020F5
:10B2C0002CEB030028C3002030B50A4B0A4D0FCBEE
:10B2D00085B06C4684E80F0021460023074A2846C3
:10B2E00006F014FF0446284606F098FF204605B0F5
:10B2F00030BD00BF08EB030024EB03009DB2020049
:10B3000073B5154D00232B60009313460A46014682
:10B31000124807F0D1F8D0B1286810F1FF3018BFFB
:10B32000012002B070BD013405F0C2FFB442F3D079
:10B330002B68002BF7D0B4F57A7FEDD1084B094983
:10B340001888000440F0030003F0C6FCE4E704465C
:10B3500040F2E936ECE700BF28C3002024EB0300ED
:10B3600048C1002018EB03007047000007B5064BEA
:10B37000064918680190002301A88DF8043006F0F2
:10B38000C9FC03B05DF804FB3AEB030069B30200AB
:10B390001FB50A4A52F8040F5168127A01AB03C371
:10B3A00001A900201A7006F0F9FC0121044806F0FA
:10B3B0004BFD06F09DFD05B05DF804FB3AEB030084
:10B3C0002CC30020084B18884FF4616310FB03F076
:10B3D000FF23B0FBF3F341F26800584340F6A61395
:10B3E000B0FBF3F080B270472CC300207047704769
:10B3F00007B5044B0093044A402303F07BF903B0E4
:10B400005DF804FB59B40200DDC4002010B50289C8
:10B4100043899A4210D2838802685C1C8480D1548C
:10B4200081884289B1FBF2F302FB13138380038905
:10B4300001330381012010BD0020FCE7032908B57A
:10B4400006D100F0CFFC0348BDE8084000F012BD73
:10B4500008BD00BFDCEC030070B50E4E33780D461E
:10B460004BB10D4E8C18A54212D015F8011B304679
:10B47000FFF7CCFFF7E7D4B2224608480FF06FF889
:10B480002246064906480DF0E1F808B90123337059
:10B4900070BD00BFDCC4002028BD0020DDC400203A
:10B4A0004CEC0300023808B50C282FD8DFE800F078
:10B4B000072E2E2E2E2E0F1E2A2E2E2E0B00BDE80E
:10B4C00008400DF065BBBDE808400DF015BB0EF05F
:10B4D00021FBD8B90DF00EFB0D4B0E491888000466
:10B4E00040F00300BDE8084003F0F6BB084B0A49F2
:10B4F0001888000440F0030003F0EEFBBDE80840AC
:10B500000DF03CBBBDE808400DF0F8BA08BD00BF27
:10B5100048C10020D3ED0300DEED030070470A466A
:10B5200001460020FFF798BF70B5002390B0048952
:10B53000D9B29CB1C18805684A1C92B2C2806E5CC7
:10B5400045890DF80360B2FBF5F1013305FB1122CB
:10B55000013C402BC2800481E9D119466846FFF7BF
:10B56000DEFF10B070BD00002DE9F0410546032953
:10B5700006D8DFE801F012071F021F4B00221A70E5
:10B58000BDE8F0811C4B1D4800221A700389002B76
:10B59000F6D0BDE8F041FFF7C7BF0DF075F8184FC2
:10B5A000DFF8648006460024B4420AD128460DF034
:10B5B0006EF868B9012212491248BDE8F0410DF059
:10B5C00069B8E3B24046F95CFFF720FF0134EBE7CE
:10B5D000402828BF40200246044609490948084F30
:10B5E000094E0DF057F80025795D30460135FFF71B
:10B5F0000DFFAC42F8D1DDE7DCC4002028BD0020FF
:10B600009CC400204CEC03001CBD0020014B188999
:10B61000704700BF1CBD002007B502AB012103F835
:10B62000010D1846FFF77BFF03B05DF804FB000037
:10B6300030B50A4B1A8972B1D8881C685D89411CE3
:10B6400089B2D980205CB1FBF5F4013A05FB1411F5
:10B65000D9801A8130BD1046FCE700BF1CBD002018
:10B6600008B505F0B9FE08B103F0B6FC16480DF0B8
:10B67000B1F908B103F0B0FC14480DF0A3FA08B119
:10B6800003F0AAFC11480DF00FFB08B103F0A4FC75
:10B690000F480DF097FA08B103F09EFC0D480DF02D
:10B6A00091FA08B103F098FC0B480DF08BFA08B141
:10B6B00003F092FC09480DF085FA08B103F08CFC08
:10B6C00000F096FC002008BDB8ED0300DCEC0300A0
:10B6D00010ED0300A4EC03006CEC03004CEC030041
:10B6E00010B50DF0F1F9044608B103F075FC2046E1
:10B6F00010BD08B50DF0F0FC0028FBD1BDE80840F6
:10B7000000F094BC10B50146054800F071FB0446FA
:10B710000EF03AFA08B10DF045FAE0B210BD00BFE4
:10B72000DCEC03000146052201480CF001BA00BF21
:10B7300010ED030037B502230446ADF8050001A95A
:10B74000032209488DF804300CF0F2F9074B084940
:10B75000054618880004224640F0030003F0C0FAB2
:10B76000284603B030BD00BFA4EC030048C1002050
:10B77000C4ED030007B50322ADF8050001A9044894
:10B780008DF804200CF0D4F903B05DF804FB00BF81
:10B79000A4EC030010B50B46044658B90A68096AC0
:10B7A0000968497882F8241018469A6A022190475D
:10B7B000204610BD0320FCE7F0B5BB4D0C7A2C7081
:10B7C0000468B4F5F07F00F062815FD840F2D716CC
:10B7D000B44200F01E81B4F5EC7F26D2B4F5E87FC8
:10B7E00000F0ED800BD8002C00F0CA8040F2CF169C
:10B7F000B44200F0D880002303601846D2E0B4F5CC
:10B80000EA7F00F0F980B4F5EB7FF4D100240AB1AF
:10B8100006791655A54E36680134767806719C4235
:10B82000C0F0F88040F2D713BAE0B4F5ED7F00F035
:10B83000098114D8B4F5EC7F00F0F78040F2D916F6
:10B84000B442D8D100240AB10679165501344E7E8F
:10B8500006719C42C0F0F7804FF4ED73A0E0B4F5A0
:10B86000EF7F00F0FC8000F2068140F2DB16B4426C
:10B87000C1D100240AB106791655013409269C422B
:10B880000671C0F0ED804FF4EF7389E040F2F916D5
:10B89000B44200F07181B4F5FD7F3CD240F2E31672
:10B8A000B44200F01881B4F5F27F14D240F2E116F0
:10B8B000B44200F00381B4F5F17F9CD100240AB1B9
:10B8C0000679165501344E6906719C42C0F0048118
:10B8D00040F2E31364E040F2EF16B44200F02D8131
:10B8E000B4F5F87F00F03781B4F5F67F83D10024FA
:10B8F0000AB1067916556E4E37780E6956F82760EC
:10B900006C4F36683E8001349C420671C0F016814F
:10B9100040F2EF1344E040F2FF16B44200F05281CF
:10B92000B4F5007F14D2B4F5FD7F00F03181B4F599
:10B93000FF7F7FF460AF00240AB106791655013409
:10B9400003269C420671C0F03E8140F2FF1327E0BF
:10B9500040F20126B44200F04D81B4F5007F40F280
:10B960003D8140F20226B4427FF445AF00240AB183
:10B97000067916554E4F3E78013601343E70C6E0CA
:10B980004D4E34704C4E37782E78B74202D340F289
:10B99000062305E00926A342067105D840F2CF131D
:10B9A00003600120F0BD00240AB106791655013468
:10B9B00004269C42067103D34FF4E873F0E7002499
:10B9C0000AB1067916553C4E0F7A3678DFF8DCC09E
:10B9D000B74204F1010440F21A8101F1090706EBB4
:10B9E000460607EB060E9C42BE5DCCF800E00671F1
:10B9F00003D34FF4EA73D3E700240AB1067916554E
:10BA0000013400269C420671FFF401AF4FF4EB7342
:10BA1000C6E700240AB106791655013403269C4274
:10BA2000067103D34FF4EC73BAE700240AB1067928
:10BA3000165501340E7E06719C42FFF404AF40F2AD
:10BA4000D913ADE700240AB1067916550134002652
:10BA50009C420671FFF40EAF40F2DB13A0E7002416
:10BA60000AB106791655013421269C42067103D38A
:10BA700040F2DF1394E700240AB106791655013429
:10BA800011269C42067103D34FF4F07388E700241B
:10BA90000AB106791655013401269C4206710ED36F
:10BAA00040F2E1137CE700BF6BC9002070C90020A1
:10BAB0006CC900205EC900206AC9002000240AB1B8
:10BAC00006791655013400269C420671FFF4F7AE44
:10BAD0004FF4F17364E700240AB1067916554F4E0E
